{
  "contractName": "PakbetCertificate",
  "abi": [
    {
      "constant": true,
      "inputs": [
        {
          "name": "",
          "type": "uint256"
        }
      ],
      "name": "students",
      "outputs": [
        {
          "name": "blockChainAccount",
          "type": "address"
        }
      ],
      "payable": false,
      "stateMutability": "view",
      "type": "function"
    },
    {
      "constant": true,
      "inputs": [
        {
          "name": "",
          "type": "uint256"
        }
      ],
      "name": "issuers",
      "outputs": [
        {
          "name": "active",
          "type": "bool"
        },
        {
          "name": "name",
          "type": "string"
        }
      ],
      "payable": false,
      "stateMutability": "view",
      "type": "function"
    },
    {
      "constant": true,
      "inputs": [
        {
          "name": "",
          "type": "uint256"
        }
      ],
      "name": "certificates",
      "outputs": [
        {
          "name": "issuedTo",
          "type": "uint256"
        },
        {
          "name": "issuedBy",
          "type": "uint256"
        },
        {
          "name": "templateUsed",
          "type": "uint256"
        },
        {
          "name": "date",
          "type": "uint32"
        }
      ],
      "payable": false,
      "stateMutability": "view",
      "type": "function"
    },
    {
      "constant": false,
      "inputs": [
        {
          "name": "_title",
          "type": "string"
        },
        {
          "name": "_description",
          "type": "string"
        }
      ],
      "name": "createTemplate",
      "outputs": [],
      "payable": false,
      "stateMutability": "nonpayable",
      "type": "function"
    },
    {
      "constant": false,
      "inputs": [],
      "name": "renounceOwnership",
      "outputs": [],
      "payable": false,
      "stateMutability": "nonpayable",
      "type": "function"
    },
    {
      "constant": true,
      "inputs": [],
      "name": "owner",
      "outputs": [
        {
          "name": "",
          "type": "address"
        }
      ],
      "payable": false,
      "stateMutability": "view",
      "type": "function"
    },
    {
      "constant": true,
      "inputs": [],
      "name": "isOwner",
      "outputs": [
        {
          "name": "",
          "type": "bool"
        }
      ],
      "payable": false,
      "stateMutability": "view",
      "type": "function"
    },
    {
      "constant": false,
      "inputs": [
        {
          "name": "_issuerAddress",
          "type": "address"
        },
        {
          "name": "_name",
          "type": "string"
        }
      ],
      "name": "accreditIssuer",
      "outputs": [],
      "payable": false,
      "stateMutability": "nonpayable",
      "type": "function"
    },
    {
      "constant": true,
      "inputs": [
        {
          "name": "",
          "type": "uint256"
        }
      ],
      "name": "templates",
      "outputs": [
        {
          "name": "createdBy",
          "type": "address"
        },
        {
          "name": "title",
          "type": "string"
        },
        {
          "name": "description",
          "type": "string"
        }
      ],
      "payable": false,
      "stateMutability": "view",
      "type": "function"
    },
    {
      "constant": false,
      "inputs": [
        {
          "name": "_index",
          "type": "uint256"
        }
      ],
      "name": "deActivateIssuerById",
      "outputs": [],
      "payable": false,
      "stateMutability": "nonpayable",
      "type": "function"
    },
    {
      "constant": true,
      "inputs": [
        {
          "name": "_id",
          "type": "uint256"
        }
      ],
      "name": "getIssuedTemplates",
      "outputs": [
        {
          "name": "",
          "type": "uint256[]"
        }
      ],
      "payable": false,
      "stateMutability": "view",
      "type": "function"
    },
    {
      "constant": false,
      "inputs": [
        {
          "name": "_index",
          "type": "uint256"
        }
      ],
      "name": "reActivateIssuerById",
      "outputs": [],
      "payable": false,
      "stateMutability": "nonpayable",
      "type": "function"
    },
    {
      "constant": false,
      "inputs": [
        {
          "name": "newOwner",
          "type": "address"
        }
      ],
      "name": "transferOwnership",
      "outputs": [],
      "payable": false,
      "stateMutability": "nonpayable",
      "type": "function"
    },
    {
      "anonymous": false,
      "inputs": [
        {
          "indexed": false,
          "name": "issuerAddress",
          "type": "address"
        },
        {
          "indexed": false,
          "name": "title",
          "type": "string"
        },
        {
          "indexed": false,
          "name": "description",
          "type": "string"
        }
      ],
      "name": "NewTemplate",
      "type": "event"
    },
    {
      "anonymous": false,
      "inputs": [
        {
          "indexed": false,
          "name": "hashCode",
          "type": "bytes32"
        }
      ],
      "name": "NewCertificate",
      "type": "event"
    },
    {
      "anonymous": false,
      "inputs": [
        {
          "indexed": false,
          "name": "hashCode",
          "type": "bytes32"
        },
        {
          "indexed": false,
          "name": "student",
          "type": "address"
        }
      ],
      "name": "NewPremiumCertificate",
      "type": "event"
    },
    {
      "anonymous": false,
      "inputs": [
        {
          "indexed": false,
          "name": "issuerId",
          "type": "uint256"
        },
        {
          "indexed": false,
          "name": "name",
          "type": "string"
        }
      ],
      "name": "NewIssuer",
      "type": "event"
    },
    {
      "anonymous": false,
      "inputs": [
        {
          "indexed": false,
          "name": "id",
          "type": "uint256"
        },
        {
          "indexed": false,
          "name": "student",
          "type": "address"
        }
      ],
      "name": "NewStudent",
      "type": "event"
    },
    {
      "anonymous": false,
      "inputs": [
        {
          "indexed": true,
          "name": "previousOwner",
          "type": "address"
        },
        {
          "indexed": true,
          "name": "newOwner",
          "type": "address"
        }
      ],
      "name": "OwnershipTransferred",
      "type": "event"
    },
    {
      "constant": false,
      "inputs": [
        {
          "name": "_hashCode",
          "type": "bytes32"
        }
      ],
      "name": "awardRegularCertificate",
      "outputs": [
        {
          "name": "",
          "type": "bool"
        }
      ],
      "payable": false,
      "stateMutability": "nonpayable",
      "type": "function"
    },
    {
      "constant": true,
      "inputs": [
        {
          "name": "_hashCode",
          "type": "bytes32"
        }
      ],
      "name": "validateRegularCertificate",
      "outputs": [
        {
          "name": "",
          "type": "bool"
        }
      ],
      "payable": false,
      "stateMutability": "view",
      "type": "function"
    },
    {
      "constant": false,
      "inputs": [
        {
          "name": "_templateId",
          "type": "uint256"
        },
        {
          "name": "_hashCode",
          "type": "bytes32"
        },
        {
          "name": "_studentAddress",
          "type": "address"
        }
      ],
      "name": "awardPublicCertificates",
      "outputs": [],
      "payable": false,
      "stateMutability": "nonpayable",
      "type": "function"
    }
  ],
  "bytecode": "0x6080604052336000806101000a81548173ffffffffffffffffffffffffffffffffffffffff021916908373ffffffffffffffffffffffffffffffffffffffff1602179055506000809054906101000a900473ffffffffffffffffffffffffffffffffffffffff1673ffffffffffffffffffffffffffffffffffffffff16600073ffffffffffffffffffffffffffffffffffffffff167f8be0079c531659141344cd1fd0a4f28419497f9722a3daafe3b4186f6b6457e060405160405180910390a3611f86806100cf6000396000f3fe6080604052600436106100e6576000357c0100000000000000000000000000000000000000000000000000000000900463ffffffff16806306ead22e146100eb57806352a8f2711461016657806361ec30c4146101b9578063663b3e22146102785780636aeae837146102e8578063715018a6146103c35780638da5cb5b146103da5780638f32d59b1461043157806392f0ae861461046057806397ded1b0146104b3578063a4d68d7514610518578063bc525652146105be578063c01ff84c14610711578063e5f5a1461461074c578063e97c147b146107dc578063f2fde38b14610817575b600080fd5b3480156100f757600080fd5b506101246004803603602081101561010e57600080fd5b8101908080359060200190929190505050610868565b604051808273ffffffffffffffffffffffffffffffffffffffff1673ffffffffffffffffffffffffffffffffffffffff16815260200191505060405180910390f35b34801561017257600080fd5b5061019f6004803603602081101561018957600080fd5b81019080803590602001909291905050506108b5565b604051808215151515815260200191505060405180910390f35b3480156101c557600080fd5b506101f2600480360360208110156101dc57600080fd5b8101908080359060200190929190505050610a28565b604051808315151515815260200180602001828103825283818151815260200191508051906020019080838360005b8381101561023c578082015181840152602081019050610221565b50505050905090810190601f1680156102695780820380516001836020036101000a031916815260200191505b50935050505060405180910390f35b34801561028457600080fd5b506102b16004803603602081101561029b57600080fd5b8101908080359060200190929190505050610b00565b604051808581526020018481526020018381526020018263ffffffff1663ffffffff16815260200194505050505060405180910390f35b3480156102f457600080fd5b506103c16004803603604081101561030b57600080fd5b810190808035906020019064010000000081111561032857600080fd5b82018360208201111561033a57600080fd5b8035906020019184600183028401116401000000008311171561035c57600080fd5b90919293919293908035906020019064010000000081111561037d57600080fd5b82018360208201111561038f57600080fd5b803590602001918460018302840111640100000000831117156103b157600080fd5b9091929391929390505050610b4f565b005b3480156103cf57600080fd5b506103d8610dbd565b005b3480156103e657600080fd5b506103ef610e8f565b604051808273ffffffffffffffffffffffffffffffffffffffff1673ffffffffffffffffffffffffffffffffffffffff16815260200191505060405180910390f35b34801561043d57600080fd5b50610446610eb8565b604051808215151515815260200191505060405180910390f35b34801561046c57600080fd5b506104996004803603602081101561048357600080fd5b8101908080359060200190929190505050610f0f565b604051808215151515815260200191505060405180910390f35b3480156104bf57600080fd5b50610516600480360360608110156104d657600080fd5b810190808035906020019092919080359060200190929190803573ffffffffffffffffffffffffffffffffffffffff169060200190929190505050610f61565b005b34801561052457600080fd5b506105bc6004803603604081101561053b57600080fd5b81019080803573ffffffffffffffffffffffffffffffffffffffff1690602001909291908035906020019064010000000081111561057857600080fd5b82018360208201111561058a57600080fd5b803590602001918460018302840111640100000000831117156105ac57600080fd5b909192939192939050505061128d565b005b3480156105ca57600080fd5b506105f7600480360360208110156105e157600080fd5b81019080803590602001909291905050506112f3565b604051808473ffffffffffffffffffffffffffffffffffffffff1673ffffffffffffffffffffffffffffffffffffffff1681526020018060200180602001838103835285818151815260200191508051906020019080838360005b8381101561066d578082015181840152602081019050610652565b50505050905090810190601f16801561069a5780820380516001836020036101000a031916815260200191505b50838103825284818151815260200191508051906020019080838360005b838110156106d35780820151818401526020810190506106b8565b50505050905090810190601f1680156107005780820380516001836020036101000a031916815260200191505b509550505050505060405180910390f35b34801561071d57600080fd5b5061074a6004803603602081101561073457600080fd5b810190808035906020019092919050505061147c565b005b34801561075857600080fd5b506107856004803603602081101561076f57600080fd5b8101908080359060200190929190505050611504565b6040518080602001828103825283818151815260200191508051906020019060200280838360005b838110156107c85780820151818401526020810190506107ad565b505050509050019250505060405180910390f35b3480156107e857600080fd5b50610815600480360360208110156107ff57600080fd5b810190808035906020019092919050505061161f565b005b34801561082357600080fd5b506108666004803603602081101561083a57600080fd5b81019080803573ffffffffffffffffffffffffffffffffffffffff1690602001909291905050506116a8565b005b60038181548110151561087757fe5b90600052602060002090600202016000915090508060000160009054906101000a900473ffffffffffffffffffffffffffffffffffffffff16905081565b6000336000600760008373ffffffffffffffffffffffffffffffffffffffff1673ffffffffffffffffffffffffffffffffffffffff168152602001908152602001600020549050600660008373ffffffffffffffffffffffffffffffffffffffff1673ffffffffffffffffffffffffffffffffffffffff16815260200190815260200160002060009054906101000a900460ff16151561095457600080fd5b60028181548110151561096357fe5b906000526020600020906003020160000160009054906101000a900460ff16151561098d57600080fd5b600c600085815260200190815260200160002060009054906101000a900460ff161515156109ba57600080fd5b6001600c600086815260200190815260200160002060006101000a81548160ff0219169083151502179055507f35445dd7684af4d0b1828f42019bd59ce22b71771e931983dfe04d5eb270afd8846040518082815260200191505060405180910390a1600192505050919050565b600281815481101515610a3757fe5b90600052602060002090600302016000915090508060000160009054906101000a900460ff1690806001018054600181600116156101000203166002900480601f016020809104026020016040519081016040528092919081815260200182805460018160011615610100020316600290048015610af65780601f10610acb57610100808354040283529160200191610af6565b820191906000526020600020905b815481529060010190602001808311610ad957829003601f168201915b5050505050905082565b600181815481101515610b0f57fe5b90600052602060002090600402016000915090508060000154908060010154908060020154908060030160009054906101000a900463ffffffff16905084565b33600660008273ffffffffffffffffffffffffffffffffffffffff1673ffffffffffffffffffffffffffffffffffffffff16815260200190815260200160002060009054906101000a900460ff161515610ba857600080fd5b6000600760003373ffffffffffffffffffffffffffffffffffffffff1673ffffffffffffffffffffffffffffffffffffffff168152602001908152602001600020549050600086868686600286815481101515610c0157fe5b9060005260206000209060030201600101604051602001808060200180602001806020018481038452898982818152602001925080828437600081840152601f19601f8201169050808301925050508481038352878782818152602001925080828437600081840152601f19601f820116905080830192505050848103825285818154600181600116156101000203166002900481526020019150805460018160011615610100020316600290048015610cfc5780601f10610cd157610100808354040283529160200191610cfc565b820191906000526020600020905b815481529060010190602001808311610cdf57829003601f168201915b505098505050505050505050604051602081830303815290604052805190602001209050610db43388888080601f016020809104026020016040519081016040528093929190818152602001838380828437600081840152601f19601f8201169050808301925050505050505087878080601f016020809104026020016040519081016040528093929190818152602001838380828437600081840152601f19601f82011690508083019250505050505050846116c7565b50505050505050565b610dc5610eb8565b1515610dd057600080fd5b600073ffffffffffffffffffffffffffffffffffffffff166000809054906101000a900473ffffffffffffffffffffffffffffffffffffffff1673ffffffffffffffffffffffffffffffffffffffff167f8be0079c531659141344cd1fd0a4f28419497f9722a3daafe3b4186f6b6457e060405160405180910390a360008060006101000a81548173ffffffffffffffffffffffffffffffffffffffff021916908373ffffffffffffffffffffffffffffffffffffffff160217905550565b60008060009054906101000a900473ffffffffffffffffffffffffffffffffffffffff16905090565b60008060009054906101000a900473ffffffffffffffffffffffffffffffffffffffff1673ffffffffffffffffffffffffffffffffffffffff163373ffffffffffffffffffffffffffffffffffffffff1614905090565b6000600c600083815260200190815260200160002060009054906101000a900460ff1680610f5a5750600b600083815260200190815260200160002060009054906101000a900460ff165b9050919050565b33600660008273ffffffffffffffffffffffffffffffffffffffff1673ffffffffffffffffffffffffffffffffffffffff16815260200190815260200160002060009054906101000a900460ff161515610fba57600080fd5b60048054905084101515610fcd57600080fd5b3373ffffffffffffffffffffffffffffffffffffffff16600485815481101515610ff357fe5b906000526020600020906003020160000160009054906101000a900473ffffffffffffffffffffffffffffffffffffffff1673ffffffffffffffffffffffffffffffffffffffff1614151561104757600080fd5b600560008373ffffffffffffffffffffffffffffffffffffffff1673ffffffffffffffffffffffffffffffffffffffff16815260200190815260200160002060009054906101000a900460ff16151561109f57600080fd5b600b600084815260200190815260200160002060009054906101000a900460ff161515156110cc57600080fd5b6000600860008473ffffffffffffffffffffffffffffffffffffffff1673ffffffffffffffffffffffffffffffffffffffff1681526020019081526020016000205490506000600760003373ffffffffffffffffffffffffffffffffffffffff1673ffffffffffffffffffffffffffffffffffffffff16815260200190815260200160002054905060006001806080604051908101604052808681526020018581526020018a81526020014263ffffffff168152509080600181540180825580915050906001820390600052602060002090600402016000909192909190915060008201518160000155602082015181600101556040820151816002015560608201518160030160006101000a81548163ffffffff021916908363ffffffff16021790555050500390506001600b600088815260200190815260200160002060006101000a81548160ff02191690831515021790555080600960008881526020019081526020016000208190555060038381548110151561124957fe5b906000526020600020906002020160010181908060018154018082558091505090600182039060005260206000200160009091929091909150555050505050505050565b611295610eb8565b15156112a057600080fd5b6112ee8383838080601f016020809104026020016040519081016040528093929190818152602001838380828437600081840152601f19601f82011690508083019250505050505050611a0f565b505050565b60048181548110151561130257fe5b90600052602060002090600302016000915090508060000160009054906101000a900473ffffffffffffffffffffffffffffffffffffffff1690806001018054600181600116156101000203166002900480601f0160208091040260200160405190810160405280929190818152602001828054600181600116156101000203166002900480156113d45780601f106113a9576101008083540402835291602001916113d4565b820191906000526020600020905b8154815290600101906020018083116113b757829003601f168201915b505050505090806002018054600181600116156101000203166002900480601f0160208091040260200160405190810160405280929190818152602001828054600181600116156101000203166002900480156114725780601f1061144757610100808354040283529160200191611472565b820191906000526020600020905b81548152906001019060200180831161145557829003601f168201915b5050505050905083565b611484610eb8565b151561148f57600080fd5b60028181548110151561149e57fe5b906000526020600020906003020160000160009054906101000a900460ff1615156114c857600080fd5b60006002828154811015156114d957fe5b906000526020600020906003020160000160006101000a81548160ff02191690831515021790555050565b606061150e610eb8565b151561151957600080fd5b6002805490508210151561152c57600080fd5b606060028381548110151561153d57fe5b9060005260206000209060030201600201805490506040519080825280602002602001820160405280156115805781602001602082028038833980820191505090505b50905060008090505b60028481548110151561159857fe5b906000526020600020906003020160020180549050811015611615576002848154811015156115c357fe5b9060005260206000209060030201600201818154811015156115e157fe5b906000526020600020015482828151811015156115fa57fe5b90602001906020020181815250508080600101915050611589565b5080915050919050565b611627610eb8565b151561163257600080fd5b60028181548110151561164157fe5b906000526020600020906003020160000160009054906101000a900460ff1615151561166c57600080fd5b600160028281548110151561167d57fe5b906000526020600020906003020160000160006101000a81548160ff02191690831515021790555050565b6116b0610eb8565b15156116bb57600080fd5b6116c481611c35565b50565b80600a600082815260200190815260200160002060009054906101000a900460ff161515156116f557600080fd5b60006004805480919060010161170b9190611d2f565b90506000600760008873ffffffffffffffffffffffffffffffffffffffff1673ffffffffffffffffffffffffffffffffffffffff16815260200190815260200160002054905060028181548110151561176057fe5b906000526020600020906003020160000160009054906101000a900460ff16151561178a57600080fd5b8660048381548110151561179a57fe5b906000526020600020906003020160000160006101000a81548173ffffffffffffffffffffffffffffffffffffffff021916908373ffffffffffffffffffffffffffffffffffffffff160217905550856004838154811015156117f957fe5b9060005260206000209060030201600101908051906020019061181d929190611d61565b508460048381548110151561182e57fe5b90600052602060002090600302016002019080519060200190611852929190611d61565b5060028181548110151561186257fe5b90600052602060002090600302016002018290806001815401808255809150509060018203906000526020600020016000909192909190915055506001600a600086815260200190815260200160002060006101000a81548160ff0219169083151502179055507fcbb28b3e1f77d025889ab5d1e72a2eca69e6105bc36f0044122e59c55f40e18f878787604051808473ffffffffffffffffffffffffffffffffffffffff1673ffffffffffffffffffffffffffffffffffffffff1681526020018060200180602001838103835285818151815260200191508051906020019080838360005b83811015611963578082015181840152602081019050611948565b50505050905090810190601f1680156119905780820380516001836020036101000a031916815260200191505b50838103825284818151815260200191508051906020019080838360005b838110156119c95780820151818401526020810190506119ae565b50505050905090810190601f1680156119f65780820380516001836020036101000a031916815260200191505b509550505050505060405180910390a150505050505050565b81600660008273ffffffffffffffffffffffffffffffffffffffff1673ffffffffffffffffffffffffffffffffffffffff16815260200190815260200160002060009054906101000a900460ff16151515611a6957600080fd5b600060028054809190600101611a7f9190611de1565b90506001600282815481101515611a9257fe5b906000526020600020906003020160000160006101000a81548160ff02191690831515021790555082600282815481101515611aca57fe5b90600052602060002090600302016001019080519060200190611aee929190611d61565b506001600660008673ffffffffffffffffffffffffffffffffffffffff1673ffffffffffffffffffffffffffffffffffffffff16815260200190815260200160002060006101000a81548160ff02191690831515021790555080600760008673ffffffffffffffffffffffffffffffffffffffff1673ffffffffffffffffffffffffffffffffffffffff168152602001908152602001600020819055507faf49f6e647e48528a5c4c0a5801947007b7fa9744c066de10b2f7e747754bf1d81846040518083815260200180602001828103825283818151815260200191508051906020019080838360005b83811015611bf4578082015181840152602081019050611bd9565b50505050905090810190601f168015611c215780820380516001836020036101000a031916815260200191505b50935050505060405180910390a150505050565b600073ffffffffffffffffffffffffffffffffffffffff168173ffffffffffffffffffffffffffffffffffffffff1614151515611c7157600080fd5b8073ffffffffffffffffffffffffffffffffffffffff166000809054906101000a900473ffffffffffffffffffffffffffffffffffffffff1673ffffffffffffffffffffffffffffffffffffffff167f8be0079c531659141344cd1fd0a4f28419497f9722a3daafe3b4186f6b6457e060405160405180910390a3806000806101000a81548173ffffffffffffffffffffffffffffffffffffffff021916908373ffffffffffffffffffffffffffffffffffffffff16021790555050565b815481835581811115611d5c57600302816003028360005260206000209182019101611d5b9190611e13565b5b505050565b828054600181600116156101000203166002900490600052602060002090601f016020900481019282601f10611da257805160ff1916838001178555611dd0565b82800160010185558215611dd0579182015b82811115611dcf578251825591602001919060010190611db4565b5b509050611ddd9190611e79565b5090565b815481835581811115611e0e57600302816003028360005260206000209182019101611e0d9190611e9e565b5b505050565b611e7691905b80821115611e7257600080820160006101000a81549073ffffffffffffffffffffffffffffffffffffffff0219169055600182016000611e599190611ef1565b600282016000611e699190611ef1565b50600301611e19565b5090565b90565b611e9b91905b80821115611e97576000816000905550600101611e7f565b5090565b90565b611eee91905b80821115611eea57600080820160006101000a81549060ff0219169055600182016000611ed19190611ef1565b600282016000611ee19190611f39565b50600301611ea4565b5090565b90565b50805460018160011615610100020316600290046000825580601f10611f175750611f36565b601f016020900490600052602060002090810190611f359190611e79565b5b50565b5080546000825590600052602060002090810190611f579190611e79565b5056fea165627a7a72305820a5770104ede266fcce233f307c7f6850ee8e7ce6a9e5d1f281196e51cff606880029",
  "source": "pragma solidity ^0.5.0;\r\nimport \"./PakbetTemplate.sol\";\r\n\r\ncontract PakbetCertificate is PakbetTemplate {\r\n    \r\n\r\n    /**\r\n     * @dev Record the hash value of the pdf document to the blockchain account.\r\n     * @notice Only accredited account can call this function.\r\n     * @return true if awarding of certificate is good, false if awarding of certificate fails.\r\n     * @param _hashCode the resulting value when pdf is hashed.\r\n     */\r\n    function awardRegularCertificate(bytes32 _hashCode) external canAward(msg.sender) returns(bool) {\r\n        require(!regularCertificates[_hashCode]);\r\n        regularCertificates[_hashCode] = true;\r\n        emit NewCertificate(_hashCode);\r\n        return true;\r\n    }\r\n    \r\n    /**\r\n     * @return true if Certificate exist in the blockchain, false if not.\r\n     * @param _hashCode the resulting value when pdf is hashed.\r\n     */\r\n    function validateRegularCertificate(bytes32 _hashCode) external view returns(bool) {\r\n        return (regularCertificates[_hashCode] || premiumCertificates[_hashCode]);\r\n    }\r\n    \r\n    /**\r\n     * @param _templateId uint256 value corresponding to the index position of template in the templates[] array.\r\n     * @param _hashCode the resulting value when pdf is hashed.\r\n     * @param _studentAddress Blockchain Address associated to the student.\r\n     */ \r\n    function awardPublicCertificates(\r\n        uint256 _templateId, \r\n        bytes32 _hashCode, \r\n        address _studentAddress\r\n    ) \r\n        external isAccredited(msg.sender) \r\n    {\r\n        require(_templateId < templates.length);\r\n        require(templates[_templateId].createdBy == msg.sender);\r\n        require(premiumStudents[_studentAddress]);\r\n        require(!premiumCertificates[_hashCode]);\r\n        \r\n        uint256 studentIndex = addressToStudent[_studentAddress];\r\n        uint256 issuerIndex = addressToIssuer[msg.sender];\r\n        \r\n        uint256 id = certificates.push(Certificate(studentIndex, issuerIndex, _templateId, uint32(now))) - 1;\r\n        premiumCertificates[_hashCode] = true;\r\n        bytesToCertificate[_hashCode] = id;\r\n        \r\n        students[studentIndex].certificatesOwned.push(id);\r\n    }\r\n}\r\n\r\n",
  "sourcePath": "D:\\ethereum\\pakbet\\contracts\\PakbetCertificate.sol",
  "compiler": {
    "name": "solc",
    "version": "0.5.0+commit.1d4f565a.Emscripten.clang"
  },
  "schemaVersion": "3.0.18",
  "updatedAt": "2019-11-09T07:32:02.037Z",
  "networkType": "ethereum",
  "devdoc": {
    "methods": {
      "accreditIssuer(address,string)": {
        "details": "Only the owner of the smart contract account can call this function. \r",
        "params": {
          "_issuerAddress": "Blockchain Address associated to the training institution.\r",
          "_name": "Name of the training institution.\r"
        }
      },
      "awardPublicCertificates(uint256,bytes32,address)": {
        "params": {
          "_hashCode": "the resulting value when pdf is hashed.\r",
          "_studentAddress": "Blockchain Address associated to the student.\r",
          "_templateId": "uint256 value corresponding to the index position of template in the templates[] array.\r"
        }
      },
      "awardRegularCertificate(bytes32)": {
        "details": "Record the hash value of the pdf document to the blockchain account.\r",
        "params": {
          "_hashCode": "the resulting value when pdf is hashed.\r"
        },
        "return": "true if awarding of certificate is good, false if awarding of certificate fails.\r"
      },
      "createTemplate(string,string)": {
        "details": "Only account in the issuer[] array can call this function.\r",
        "params": {
          "_description": "certificate description e.g. BTA Expert Program\r",
          "_title": "certificate description e.g. Certificate of Attendance.\r"
        }
      },
      "deActivateIssuerById(uint256)": {
        "params": {
          "_index": "uint256 value corresponding to the index position of the training institution\r in the issuers[] array.\r"
        }
      },
      "getIssuedTemplates(uint256)": {
        "params": {
          "_id": "uint256 value corresponding to the index position of the training institution\r"
        },
        "return": "an array containing the template ids created template by the institution \r"
      },
      "isOwner()": {
        "return": "true if `msg.sender` is the owner of the contract.\r"
      },
      "owner()": {
        "return": "the address of the owner.\r"
      },
      "reActivateIssuerById(uint256)": {
        "params": {
          "_index": "uint256 value corresponding to the index position of the training institution\r in the issuers[] array.\r"
        }
      },
      "renounceOwnership()": {
        "details": "Allows the current owner to relinquish control of the contract.\r"
      },
      "transferOwnership(address)": {
        "details": "Allows the current owner to transfer control of the contract to a newOwner.\r",
        "params": {
          "newOwner": "The address to transfer ownership to.\r"
        }
      },
      "validateRegularCertificate(bytes32)": {
        "params": {
          "_hashCode": "the resulting value when pdf is hashed.\r"
        },
        "return": "true if Certificate exist in the blockchain, false if not.\r"
      }
    }
  },
  "userdoc": {
    "methods": {
      "accreditIssuer(address,string)": {
        "notice": "Add training institution to the blockchain.\r"
      },
      "awardRegularCertificate(bytes32)": {
        "notice": "Only accredited account can call this function.\r"
      },
      "createTemplate(string,string)": {
        "notice": "Creates blank certificates which will become basis for certificates\r to be issued.\r"
      },
      "deActivateIssuerById(uint256)": {
        "notice": "Prevent a training institution from creating and awarding certificates.\r"
      },
      "reActivateIssuerById(uint256)": {
        "notice": "Allows a training institution from creating and awarding certificates.\r"
      },
      "renounceOwnership()": {
        "notice": "Renouncing to ownership will leave the contract without an owner.\r It will not be possible to call the functions with the `onlyOwner`\r modifier anymore.\r"
      }
    }
  }
}