{
  "contractName": "PakbetTemplate",
  "abi": [
    {
      "constant": true,
      "inputs": [
        {
          "name": "",
          "type": "uint256"
        }
      ],
      "name": "students",
      "outputs": [
        {
          "name": "blockChainAccount",
          "type": "address"
        }
      ],
      "payable": false,
      "stateMutability": "view",
      "type": "function"
    },
    {
      "constant": true,
      "inputs": [
        {
          "name": "",
          "type": "uint256"
        }
      ],
      "name": "issuers",
      "outputs": [
        {
          "name": "active",
          "type": "bool"
        },
        {
          "name": "name",
          "type": "string"
        }
      ],
      "payable": false,
      "stateMutability": "view",
      "type": "function"
    },
    {
      "constant": true,
      "inputs": [
        {
          "name": "",
          "type": "uint256"
        }
      ],
      "name": "certificates",
      "outputs": [
        {
          "name": "issuedTo",
          "type": "uint256"
        },
        {
          "name": "issuedBy",
          "type": "uint256"
        },
        {
          "name": "templateUsed",
          "type": "uint256"
        },
        {
          "name": "date",
          "type": "uint32"
        }
      ],
      "payable": false,
      "stateMutability": "view",
      "type": "function"
    },
    {
      "constant": false,
      "inputs": [],
      "name": "renounceOwnership",
      "outputs": [],
      "payable": false,
      "stateMutability": "nonpayable",
      "type": "function"
    },
    {
      "constant": true,
      "inputs": [],
      "name": "owner",
      "outputs": [
        {
          "name": "",
          "type": "address"
        }
      ],
      "payable": false,
      "stateMutability": "view",
      "type": "function"
    },
    {
      "constant": true,
      "inputs": [],
      "name": "isOwner",
      "outputs": [
        {
          "name": "",
          "type": "bool"
        }
      ],
      "payable": false,
      "stateMutability": "view",
      "type": "function"
    },
    {
      "constant": false,
      "inputs": [
        {
          "name": "_issuerAddress",
          "type": "address"
        },
        {
          "name": "_name",
          "type": "string"
        }
      ],
      "name": "accreditIssuer",
      "outputs": [],
      "payable": false,
      "stateMutability": "nonpayable",
      "type": "function"
    },
    {
      "constant": true,
      "inputs": [
        {
          "name": "",
          "type": "uint256"
        }
      ],
      "name": "templates",
      "outputs": [
        {
          "name": "createdBy",
          "type": "address"
        },
        {
          "name": "title",
          "type": "string"
        },
        {
          "name": "description",
          "type": "string"
        }
      ],
      "payable": false,
      "stateMutability": "view",
      "type": "function"
    },
    {
      "constant": false,
      "inputs": [
        {
          "name": "_index",
          "type": "uint256"
        }
      ],
      "name": "deActivateIssuerById",
      "outputs": [],
      "payable": false,
      "stateMutability": "nonpayable",
      "type": "function"
    },
    {
      "constant": false,
      "inputs": [
        {
          "name": "_index",
          "type": "uint256"
        }
      ],
      "name": "reActivateIssuerById",
      "outputs": [],
      "payable": false,
      "stateMutability": "nonpayable",
      "type": "function"
    },
    {
      "constant": false,
      "inputs": [
        {
          "name": "newOwner",
          "type": "address"
        }
      ],
      "name": "transferOwnership",
      "outputs": [],
      "payable": false,
      "stateMutability": "nonpayable",
      "type": "function"
    },
    {
      "anonymous": false,
      "inputs": [
        {
          "indexed": false,
          "name": "issuerAddress",
          "type": "address"
        },
        {
          "indexed": false,
          "name": "title",
          "type": "string"
        },
        {
          "indexed": false,
          "name": "description",
          "type": "string"
        }
      ],
      "name": "NewTemplate",
      "type": "event"
    },
    {
      "anonymous": false,
      "inputs": [
        {
          "indexed": false,
          "name": "hashCode",
          "type": "bytes32"
        }
      ],
      "name": "NewCertificate",
      "type": "event"
    },
    {
      "anonymous": false,
      "inputs": [
        {
          "indexed": false,
          "name": "hashCode",
          "type": "bytes32"
        },
        {
          "indexed": false,
          "name": "student",
          "type": "address"
        }
      ],
      "name": "NewPremiumCertificate",
      "type": "event"
    },
    {
      "anonymous": false,
      "inputs": [
        {
          "indexed": false,
          "name": "issuerId",
          "type": "uint256"
        },
        {
          "indexed": false,
          "name": "name",
          "type": "string"
        }
      ],
      "name": "NewIssuer",
      "type": "event"
    },
    {
      "anonymous": false,
      "inputs": [
        {
          "indexed": false,
          "name": "id",
          "type": "uint256"
        },
        {
          "indexed": false,
          "name": "student",
          "type": "address"
        }
      ],
      "name": "NewStudent",
      "type": "event"
    },
    {
      "anonymous": false,
      "inputs": [
        {
          "indexed": true,
          "name": "previousOwner",
          "type": "address"
        },
        {
          "indexed": true,
          "name": "newOwner",
          "type": "address"
        }
      ],
      "name": "OwnershipTransferred",
      "type": "event"
    },
    {
      "constant": false,
      "inputs": [
        {
          "name": "_title",
          "type": "string"
        },
        {
          "name": "_description",
          "type": "string"
        }
      ],
      "name": "createTemplate",
      "outputs": [],
      "payable": false,
      "stateMutability": "nonpayable",
      "type": "function"
    },
    {
      "constant": true,
      "inputs": [
        {
          "name": "_id",
          "type": "uint256"
        }
      ],
      "name": "getIssuedTemplates",
      "outputs": [
        {
          "name": "",
          "type": "uint256[]"
        }
      ],
      "payable": false,
      "stateMutability": "view",
      "type": "function"
    }
  ],
  "bytecode": "0x6080604052336000806101000a81548173ffffffffffffffffffffffffffffffffffffffff021916908373ffffffffffffffffffffffffffffffffffffffff1602179055506000809054906101000a900473ffffffffffffffffffffffffffffffffffffffff1673ffffffffffffffffffffffffffffffffffffffff16600073ffffffffffffffffffffffffffffffffffffffff167f8be0079c531659141344cd1fd0a4f28419497f9722a3daafe3b4186f6b6457e060405160405180910390a3611969806100cf6000396000f3fe6080604052600436106100c5576000357c0100000000000000000000000000000000000000000000000000000000900463ffffffff16806306ead22e146100ca57806361ec30c414610145578063663b3e22146102045780636aeae83714610274578063715018a61461034f5780638da5cb5b146103665780638f32d59b146103bd578063a4d68d75146103ec578063bc52565214610492578063c01ff84c146105e5578063e5f5a14614610620578063e97c147b146106b0578063f2fde38b146106eb575b600080fd5b3480156100d657600080fd5b50610103600480360360208110156100ed57600080fd5b810190808035906020019092919050505061073c565b604051808273ffffffffffffffffffffffffffffffffffffffff1673ffffffffffffffffffffffffffffffffffffffff16815260200191505060405180910390f35b34801561015157600080fd5b5061017e6004803603602081101561016857600080fd5b8101908080359060200190929190505050610789565b604051808315151515815260200180602001828103825283818151815260200191508051906020019080838360005b838110156101c85780820151818401526020810190506101ad565b50505050905090810190601f1680156101f55780820380516001836020036101000a031916815260200191505b50935050505060405180910390f35b34801561021057600080fd5b5061023d6004803603602081101561022757600080fd5b8101908080359060200190929190505050610861565b604051808581526020018481526020018381526020018263ffffffff1663ffffffff16815260200194505050505060405180910390f35b34801561028057600080fd5b5061034d6004803603604081101561029757600080fd5b81019080803590602001906401000000008111156102b457600080fd5b8201836020820111156102c657600080fd5b803590602001918460018302840111640100000000831117156102e857600080fd5b90919293919293908035906020019064010000000081111561030957600080fd5b82018360208201111561031b57600080fd5b8035906020019184600183028401116401000000008311171561033d57600080fd5b90919293919293905050506108b0565b005b34801561035b57600080fd5b50610364610b1e565b005b34801561037257600080fd5b5061037b610bf0565b604051808273ffffffffffffffffffffffffffffffffffffffff1673ffffffffffffffffffffffffffffffffffffffff16815260200191505060405180910390f35b3480156103c957600080fd5b506103d2610c19565b604051808215151515815260200191505060405180910390f35b3480156103f857600080fd5b506104906004803603604081101561040f57600080fd5b81019080803573ffffffffffffffffffffffffffffffffffffffff1690602001909291908035906020019064010000000081111561044c57600080fd5b82018360208201111561045e57600080fd5b8035906020019184600183028401116401000000008311171561048057600080fd5b9091929391929390505050610c70565b005b34801561049e57600080fd5b506104cb600480360360208110156104b557600080fd5b8101908080359060200190929190505050610cd6565b604051808473ffffffffffffffffffffffffffffffffffffffff1673ffffffffffffffffffffffffffffffffffffffff1681526020018060200180602001838103835285818151815260200191508051906020019080838360005b83811015610541578082015181840152602081019050610526565b50505050905090810190601f16801561056e5780820380516001836020036101000a031916815260200191505b50838103825284818151815260200191508051906020019080838360005b838110156105a757808201518184015260208101905061058c565b50505050905090810190601f1680156105d45780820380516001836020036101000a031916815260200191505b509550505050505060405180910390f35b3480156105f157600080fd5b5061061e6004803603602081101561060857600080fd5b8101908080359060200190929190505050610e5f565b005b34801561062c57600080fd5b506106596004803603602081101561064357600080fd5b8101908080359060200190929190505050610ee7565b6040518080602001828103825283818151815260200191508051906020019060200280838360005b8381101561069c578082015181840152602081019050610681565b505050509050019250505060405180910390f35b3480156106bc57600080fd5b506106e9600480360360208110156106d357600080fd5b8101908080359060200190929190505050611002565b005b3480156106f757600080fd5b5061073a6004803603602081101561070e57600080fd5b81019080803573ffffffffffffffffffffffffffffffffffffffff16906020019092919050505061108b565b005b60038181548110151561074b57fe5b90600052602060002090600202016000915090508060000160009054906101000a900473ffffffffffffffffffffffffffffffffffffffff16905081565b60028181548110151561079857fe5b90600052602060002090600302016000915090508060000160009054906101000a900460ff1690806001018054600181600116156101000203166002900480601f0160208091040260200160405190810160405280929190818152602001828054600181600116156101000203166002900480156108575780601f1061082c57610100808354040283529160200191610857565b820191906000526020600020905b81548152906001019060200180831161083a57829003601f168201915b5050505050905082565b60018181548110151561087057fe5b90600052602060002090600402016000915090508060000154908060010154908060020154908060030160009054906101000a900463ffffffff16905084565b33600660008273ffffffffffffffffffffffffffffffffffffffff1673ffffffffffffffffffffffffffffffffffffffff16815260200190815260200160002060009054906101000a900460ff16151561090957600080fd5b6000600760003373ffffffffffffffffffffffffffffffffffffffff1673ffffffffffffffffffffffffffffffffffffffff16815260200190815260200160002054905060008686868660028681548110151561096257fe5b9060005260206000209060030201600101604051602001808060200180602001806020018481038452898982818152602001925080828437600081840152601f19601f8201169050808301925050508481038352878782818152602001925080828437600081840152601f19601f820116905080830192505050848103825285818154600181600116156101000203166002900481526020019150805460018160011615610100020316600290048015610a5d5780601f10610a3257610100808354040283529160200191610a5d565b820191906000526020600020905b815481529060010190602001808311610a4057829003601f168201915b505098505050505050505050604051602081830303815290604052805190602001209050610b153388888080601f016020809104026020016040519081016040528093929190818152602001838380828437600081840152601f19601f8201169050808301925050505050505087878080601f016020809104026020016040519081016040528093929190818152602001838380828437600081840152601f19601f82011690508083019250505050505050846110aa565b50505050505050565b610b26610c19565b1515610b3157600080fd5b600073ffffffffffffffffffffffffffffffffffffffff166000809054906101000a900473ffffffffffffffffffffffffffffffffffffffff1673ffffffffffffffffffffffffffffffffffffffff167f8be0079c531659141344cd1fd0a4f28419497f9722a3daafe3b4186f6b6457e060405160405180910390a360008060006101000a81548173ffffffffffffffffffffffffffffffffffffffff021916908373ffffffffffffffffffffffffffffffffffffffff160217905550565b60008060009054906101000a900473ffffffffffffffffffffffffffffffffffffffff16905090565b60008060009054906101000a900473ffffffffffffffffffffffffffffffffffffffff1673ffffffffffffffffffffffffffffffffffffffff163373ffffffffffffffffffffffffffffffffffffffff1614905090565b610c78610c19565b1515610c8357600080fd5b610cd18383838080601f016020809104026020016040519081016040528093929190818152602001838380828437600081840152601f19601f820116905080830192505050505050506113f2565b505050565b600481815481101515610ce557fe5b90600052602060002090600302016000915090508060000160009054906101000a900473ffffffffffffffffffffffffffffffffffffffff1690806001018054600181600116156101000203166002900480601f016020809104026020016040519081016040528092919081815260200182805460018160011615610100020316600290048015610db75780601f10610d8c57610100808354040283529160200191610db7565b820191906000526020600020905b815481529060010190602001808311610d9a57829003601f168201915b505050505090806002018054600181600116156101000203166002900480601f016020809104026020016040519081016040528092919081815260200182805460018160011615610100020316600290048015610e555780601f10610e2a57610100808354040283529160200191610e55565b820191906000526020600020905b815481529060010190602001808311610e3857829003601f168201915b5050505050905083565b610e67610c19565b1515610e7257600080fd5b600281815481101515610e8157fe5b906000526020600020906003020160000160009054906101000a900460ff161515610eab57600080fd5b6000600282815481101515610ebc57fe5b906000526020600020906003020160000160006101000a81548160ff02191690831515021790555050565b6060610ef1610c19565b1515610efc57600080fd5b60028054905082101515610f0f57600080fd5b6060600283815481101515610f2057fe5b906000526020600020906003020160020180549050604051908082528060200260200182016040528015610f635781602001602082028038833980820191505090505b50905060008090505b600284815481101515610f7b57fe5b906000526020600020906003020160020180549050811015610ff857600284815481101515610fa657fe5b906000526020600020906003020160020181815481101515610fc457fe5b90600052602060002001548282815181101515610fdd57fe5b90602001906020020181815250508080600101915050610f6c565b5080915050919050565b61100a610c19565b151561101557600080fd5b60028181548110151561102457fe5b906000526020600020906003020160000160009054906101000a900460ff1615151561104f57600080fd5b600160028281548110151561106057fe5b906000526020600020906003020160000160006101000a81548160ff02191690831515021790555050565b611093610c19565b151561109e57600080fd5b6110a781611618565b50565b80600a600082815260200190815260200160002060009054906101000a900460ff161515156110d857600080fd5b6000600480548091906001016110ee9190611712565b90506000600760008873ffffffffffffffffffffffffffffffffffffffff1673ffffffffffffffffffffffffffffffffffffffff16815260200190815260200160002054905060028181548110151561114357fe5b906000526020600020906003020160000160009054906101000a900460ff16151561116d57600080fd5b8660048381548110151561117d57fe5b906000526020600020906003020160000160006101000a81548173ffffffffffffffffffffffffffffffffffffffff021916908373ffffffffffffffffffffffffffffffffffffffff160217905550856004838154811015156111dc57fe5b90600052602060002090600302016001019080519060200190611200929190611744565b508460048381548110151561121157fe5b90600052602060002090600302016002019080519060200190611235929190611744565b5060028181548110151561124557fe5b90600052602060002090600302016002018290806001815401808255809150509060018203906000526020600020016000909192909190915055506001600a600086815260200190815260200160002060006101000a81548160ff0219169083151502179055507fcbb28b3e1f77d025889ab5d1e72a2eca69e6105bc36f0044122e59c55f40e18f878787604051808473ffffffffffffffffffffffffffffffffffffffff1673ffffffffffffffffffffffffffffffffffffffff1681526020018060200180602001838103835285818151815260200191508051906020019080838360005b8381101561134657808201518184015260208101905061132b565b50505050905090810190601f1680156113735780820380516001836020036101000a031916815260200191505b50838103825284818151815260200191508051906020019080838360005b838110156113ac578082015181840152602081019050611391565b50505050905090810190601f1680156113d95780820380516001836020036101000a031916815260200191505b509550505050505060405180910390a150505050505050565b81600660008273ffffffffffffffffffffffffffffffffffffffff1673ffffffffffffffffffffffffffffffffffffffff16815260200190815260200160002060009054906101000a900460ff1615151561144c57600080fd5b60006002805480919060010161146291906117c4565b9050600160028281548110151561147557fe5b906000526020600020906003020160000160006101000a81548160ff021916908315150217905550826002828154811015156114ad57fe5b906000526020600020906003020160010190805190602001906114d1929190611744565b506001600660008673ffffffffffffffffffffffffffffffffffffffff1673ffffffffffffffffffffffffffffffffffffffff16815260200190815260200160002060006101000a81548160ff02191690831515021790555080600760008673ffffffffffffffffffffffffffffffffffffffff1673ffffffffffffffffffffffffffffffffffffffff168152602001908152602001600020819055507faf49f6e647e48528a5c4c0a5801947007b7fa9744c066de10b2f7e747754bf1d81846040518083815260200180602001828103825283818151815260200191508051906020019080838360005b838110156115d75780820151818401526020810190506115bc565b50505050905090810190601f1680156116045780820380516001836020036101000a031916815260200191505b50935050505060405180910390a150505050565b600073ffffffffffffffffffffffffffffffffffffffff168173ffffffffffffffffffffffffffffffffffffffff161415151561165457600080fd5b8073ffffffffffffffffffffffffffffffffffffffff166000809054906101000a900473ffffffffffffffffffffffffffffffffffffffff1673ffffffffffffffffffffffffffffffffffffffff167f8be0079c531659141344cd1fd0a4f28419497f9722a3daafe3b4186f6b6457e060405160405180910390a3806000806101000a81548173ffffffffffffffffffffffffffffffffffffffff021916908373ffffffffffffffffffffffffffffffffffffffff16021790555050565b81548183558181111561173f5760030281600302836000526020600020918201910161173e91906117f6565b5b505050565b828054600181600116156101000203166002900490600052602060002090601f016020900481019282601f1061178557805160ff19168380011785556117b3565b828001600101855582156117b3579182015b828111156117b2578251825591602001919060010190611797565b5b5090506117c0919061185c565b5090565b8154818355818111156117f1576003028160030283600052602060002091820191016117f09190611881565b5b505050565b61185991905b8082111561185557600080820160006101000a81549073ffffffffffffffffffffffffffffffffffffffff021916905560018201600061183c91906118d4565b60028201600061184c91906118d4565b506003016117fc565b5090565b90565b61187e91905b8082111561187a576000816000905550600101611862565b5090565b90565b6118d191905b808211156118cd57600080820160006101000a81549060ff02191690556001820160006118b491906118d4565b6002820160006118c4919061191c565b50600301611887565b5090565b90565b50805460018160011615610100020316600290046000825580601f106118fa5750611919565b601f016020900490600052602060002090810190611918919061185c565b5b50565b508054600082559060005260206000209081019061193a919061185c565b5056fea165627a7a72305820eb7e6c4ffb3927e1f8cde96371093aff147d14ff8b5d0bcfe79835a1c1b68c3a0029",
  "source": "pragma solidity ^0.5.0;\r\n\r\nimport \"./PakbetIssuer.sol\";\r\n\r\ncontract PakbetTemplate is PakbetIssuer {\r\n    \r\n    /**\r\n     * @notice Creates blank certificates which will become basis for certificates\r\n     * to be issued.\r\n     * @dev Only account in the issuer[] array can call this function.\r\n     * @param _title certificate description e.g. Certificate of Attendance.\r\n     * @param _description certificate description e.g. BTA Expert Program\r\n     */\r\n    function createTemplate(string calldata _title, string calldata _description) external isAccredited(msg.sender) {\r\n        uint256 index = addressToIssuer[msg.sender];\r\n        bytes32 hashCode = keccak256(abi.encode(_title, _description, issuers[index].name));\r\n        _createTemplate(msg.sender, _title, _description, hashCode);\r\n    }\r\n    \r\n     /**\r\n      * @param _id uint256 value corresponding to the index position of the training institution\r\n      * @return an array containing the template ids created template by the institution \r\n     */\r\n    function getIssuedTemplates(uint256 _id) external view onlyOwner returns(uint256[] memory)  {\r\n        require(_id < issuers.length);\r\n        uint256[] memory result = new uint256[](issuers[_id].templatesCreated.length);\r\n        \r\n        for (uint i = 0; i < issuers[_id].templatesCreated.length; i++) {\r\n            result[i] = issuers[_id].templatesCreated[i];\r\n        }\r\n        return result;\r\n    }\r\n\r\n    function _createTemplate(\r\n        address _creator, \r\n        string memory _title, \r\n        string memory _description, \r\n        bytes32 _hashCode\r\n    )\r\n        internal isNotExistingTemplate(_hashCode) \r\n    {\r\n        uint256 id = templates.length++;\r\n        uint256 index = addressToIssuer[_creator];\r\n        \r\n        require (issuers[index].active);\r\n        \r\n        templates[id].createdBy = _creator;\r\n        templates[id].title = _title;\r\n        templates[id].description = _description;\r\n        \r\n        issuers[index].templatesCreated.push(id);\r\n        existingTemplates[_hashCode] = true;\r\n        emit NewTemplate(_creator, _title, _description);\r\n    }\r\n}\r\n\r\n\r\n",
  "sourcePath": "D:\\ethereum\\pakbet\\contracts\\PakbetTemplate.sol",
  "compiler": {
    "name": "solc",
    "version": "0.5.0+commit.1d4f565a.Emscripten.clang"
  },
  "schemaVersion": "3.0.18",
  "updatedAt": "2019-11-09T07:30:01.766Z",
  "networkType": "ethereum",
  "devdoc": {
    "methods": {
      "accreditIssuer(address,string)": {
        "details": "Only the owner of the smart contract account can call this function. \r",
        "params": {
          "_issuerAddress": "Blockchain Address associated to the training institution.\r",
          "_name": "Name of the training institution.\r"
        }
      },
      "createTemplate(string,string)": {
        "details": "Only account in the issuer[] array can call this function.\r",
        "params": {
          "_description": "certificate description e.g. BTA Expert Program\r",
          "_title": "certificate description e.g. Certificate of Attendance.\r"
        }
      },
      "deActivateIssuerById(uint256)": {
        "params": {
          "_index": "uint256 value corresponding to the index position of the training institution\r in the issuers[] array.\r"
        }
      },
      "getIssuedTemplates(uint256)": {
        "params": {
          "_id": "uint256 value corresponding to the index position of the training institution\r"
        },
        "return": "an array containing the template ids created template by the institution \r"
      },
      "isOwner()": {
        "return": "true if `msg.sender` is the owner of the contract.\r"
      },
      "owner()": {
        "return": "the address of the owner.\r"
      },
      "reActivateIssuerById(uint256)": {
        "params": {
          "_index": "uint256 value corresponding to the index position of the training institution\r in the issuers[] array.\r"
        }
      },
      "renounceOwnership()": {
        "details": "Allows the current owner to relinquish control of the contract.\r"
      },
      "transferOwnership(address)": {
        "details": "Allows the current owner to transfer control of the contract to a newOwner.\r",
        "params": {
          "newOwner": "The address to transfer ownership to.\r"
        }
      }
    }
  },
  "userdoc": {
    "methods": {
      "accreditIssuer(address,string)": {
        "notice": "Add training institution to the blockchain.\r"
      },
      "createTemplate(string,string)": {
        "notice": "Creates blank certificates which will become basis for certificates\r to be issued.\r"
      },
      "deActivateIssuerById(uint256)": {
        "notice": "Prevent a training institution from creating and awarding certificates.\r"
      },
      "reActivateIssuerById(uint256)": {
        "notice": "Allows a training institution from creating and awarding certificates.\r"
      },
      "renounceOwnership()": {
        "notice": "Renouncing to ownership will leave the contract without an owner.\r It will not be possible to call the functions with the `onlyOwner`\r modifier anymore.\r"
      }
    }
  }
}