{
  "contractName": "PakbetUseCase",
  "abi": [
    {
      "constant": true,
      "inputs": [
        {
          "name": "",
          "type": "uint256"
        }
      ],
      "name": "students",
      "outputs": [
        {
          "name": "blockChainAccount",
          "type": "address"
        }
      ],
      "payable": false,
      "stateMutability": "view",
      "type": "function"
    },
    {
      "constant": true,
      "inputs": [
        {
          "name": "",
          "type": "uint256"
        }
      ],
      "name": "issuers",
      "outputs": [
        {
          "name": "active",
          "type": "bool"
        },
        {
          "name": "name",
          "type": "string"
        }
      ],
      "payable": false,
      "stateMutability": "view",
      "type": "function"
    },
    {
      "constant": true,
      "inputs": [
        {
          "name": "",
          "type": "uint256"
        }
      ],
      "name": "certificates",
      "outputs": [
        {
          "name": "issuedTo",
          "type": "uint256"
        },
        {
          "name": "issuedBy",
          "type": "uint256"
        },
        {
          "name": "templateUsed",
          "type": "uint256"
        },
        {
          "name": "date",
          "type": "uint32"
        }
      ],
      "payable": false,
      "stateMutability": "view",
      "type": "function"
    },
    {
      "constant": false,
      "inputs": [],
      "name": "renounceOwnership",
      "outputs": [],
      "payable": false,
      "stateMutability": "nonpayable",
      "type": "function"
    },
    {
      "constant": true,
      "inputs": [],
      "name": "owner",
      "outputs": [
        {
          "name": "",
          "type": "address"
        }
      ],
      "payable": false,
      "stateMutability": "view",
      "type": "function"
    },
    {
      "constant": true,
      "inputs": [],
      "name": "isOwner",
      "outputs": [
        {
          "name": "",
          "type": "bool"
        }
      ],
      "payable": false,
      "stateMutability": "view",
      "type": "function"
    },
    {
      "constant": true,
      "inputs": [
        {
          "name": "",
          "type": "uint256"
        }
      ],
      "name": "templates",
      "outputs": [
        {
          "name": "createdBy",
          "type": "address"
        },
        {
          "name": "title",
          "type": "string"
        },
        {
          "name": "description",
          "type": "string"
        }
      ],
      "payable": false,
      "stateMutability": "view",
      "type": "function"
    },
    {
      "constant": false,
      "inputs": [
        {
          "name": "newOwner",
          "type": "address"
        }
      ],
      "name": "transferOwnership",
      "outputs": [],
      "payable": false,
      "stateMutability": "nonpayable",
      "type": "function"
    },
    {
      "anonymous": false,
      "inputs": [
        {
          "indexed": false,
          "name": "issuerAddress",
          "type": "address"
        },
        {
          "indexed": false,
          "name": "title",
          "type": "string"
        },
        {
          "indexed": false,
          "name": "description",
          "type": "string"
        }
      ],
      "name": "NewTemplate",
      "type": "event"
    },
    {
      "anonymous": false,
      "inputs": [
        {
          "indexed": false,
          "name": "hashCode",
          "type": "bytes32"
        }
      ],
      "name": "NewCertificate",
      "type": "event"
    },
    {
      "anonymous": false,
      "inputs": [
        {
          "indexed": false,
          "name": "hashCode",
          "type": "bytes32"
        },
        {
          "indexed": false,
          "name": "student",
          "type": "address"
        }
      ],
      "name": "NewPremiumCertificate",
      "type": "event"
    },
    {
      "anonymous": false,
      "inputs": [
        {
          "indexed": false,
          "name": "issuerId",
          "type": "uint256"
        },
        {
          "indexed": false,
          "name": "name",
          "type": "string"
        }
      ],
      "name": "NewIssuer",
      "type": "event"
    },
    {
      "anonymous": false,
      "inputs": [
        {
          "indexed": false,
          "name": "id",
          "type": "uint256"
        },
        {
          "indexed": false,
          "name": "student",
          "type": "address"
        }
      ],
      "name": "NewStudent",
      "type": "event"
    },
    {
      "anonymous": false,
      "inputs": [
        {
          "indexed": true,
          "name": "previousOwner",
          "type": "address"
        },
        {
          "indexed": true,
          "name": "newOwner",
          "type": "address"
        }
      ],
      "name": "OwnershipTransferred",
      "type": "event"
    }
  ],
  "bytecode": "0x6080604052336000806101000a81548173ffffffffffffffffffffffffffffffffffffffff021916908373ffffffffffffffffffffffffffffffffffffffff1602179055506000809054906101000a900473ffffffffffffffffffffffffffffffffffffffff1673ffffffffffffffffffffffffffffffffffffffff16600073ffffffffffffffffffffffffffffffffffffffff167f8be0079c531659141344cd1fd0a4f28419497f9722a3daafe3b4186f6b6457e060405160405180910390a3610a12806100cf6000396000f3fe60806040526004361061008e576000357c0100000000000000000000000000000000000000000000000000000000900463ffffffff16806306ead22e1461009357806361ec30c41461010e578063663b3e22146101cd578063715018a61461023d5780638da5cb5b146102545780638f32d59b146102ab578063bc525652146102da578063f2fde38b1461042d575b600080fd5b34801561009f57600080fd5b506100cc600480360360208110156100b657600080fd5b810190808035906020019092919050505061047e565b604051808273ffffffffffffffffffffffffffffffffffffffff1673ffffffffffffffffffffffffffffffffffffffff16815260200191505060405180910390f35b34801561011a57600080fd5b506101476004803603602081101561013157600080fd5b81019080803590602001909291905050506104cb565b604051808315151515815260200180602001828103825283818151815260200191508051906020019080838360005b83811015610191578082015181840152602081019050610176565b50505050905090810190601f1680156101be5780820380516001836020036101000a031916815260200191505b50935050505060405180910390f35b3480156101d957600080fd5b50610206600480360360208110156101f057600080fd5b81019080803590602001909291905050506105a3565b604051808581526020018481526020018381526020018263ffffffff1663ffffffff16815260200194505050505060405180910390f35b34801561024957600080fd5b506102526105f2565b005b34801561026057600080fd5b506102696106c4565b604051808273ffffffffffffffffffffffffffffffffffffffff1673ffffffffffffffffffffffffffffffffffffffff16815260200191505060405180910390f35b3480156102b757600080fd5b506102c06106ed565b604051808215151515815260200191505060405180910390f35b3480156102e657600080fd5b50610313600480360360208110156102fd57600080fd5b8101908080359060200190929190505050610744565b604051808473ffffffffffffffffffffffffffffffffffffffff1673ffffffffffffffffffffffffffffffffffffffff1681526020018060200180602001838103835285818151815260200191508051906020019080838360005b8381101561038957808201518184015260208101905061036e565b50505050905090810190601f1680156103b65780820380516001836020036101000a031916815260200191505b50838103825284818151815260200191508051906020019080838360005b838110156103ef5780820151818401526020810190506103d4565b50505050905090810190601f16801561041c5780820380516001836020036101000a031916815260200191505b509550505050505060405180910390f35b34801561043957600080fd5b5061047c6004803603602081101561045057600080fd5b81019080803573ffffffffffffffffffffffffffffffffffffffff1690602001909291905050506108cd565b005b60038181548110151561048d57fe5b90600052602060002090600202016000915090508060000160009054906101000a900473ffffffffffffffffffffffffffffffffffffffff16905081565b6002818154811015156104da57fe5b90600052602060002090600302016000915090508060000160009054906101000a900460ff1690806001018054600181600116156101000203166002900480601f0160208091040260200160405190810160405280929190818152602001828054600181600116156101000203166002900480156105995780601f1061056e57610100808354040283529160200191610599565b820191906000526020600020905b81548152906001019060200180831161057c57829003601f168201915b5050505050905082565b6001818154811015156105b257fe5b90600052602060002090600402016000915090508060000154908060010154908060020154908060030160009054906101000a900463ffffffff16905084565b6105fa6106ed565b151561060557600080fd5b600073ffffffffffffffffffffffffffffffffffffffff166000809054906101000a900473ffffffffffffffffffffffffffffffffffffffff1673ffffffffffffffffffffffffffffffffffffffff167f8be0079c531659141344cd1fd0a4f28419497f9722a3daafe3b4186f6b6457e060405160405180910390a360008060006101000a81548173ffffffffffffffffffffffffffffffffffffffff021916908373ffffffffffffffffffffffffffffffffffffffff160217905550565b60008060009054906101000a900473ffffffffffffffffffffffffffffffffffffffff16905090565b60008060009054906101000a900473ffffffffffffffffffffffffffffffffffffffff1673ffffffffffffffffffffffffffffffffffffffff163373ffffffffffffffffffffffffffffffffffffffff1614905090565b60048181548110151561075357fe5b90600052602060002090600302016000915090508060000160009054906101000a900473ffffffffffffffffffffffffffffffffffffffff1690806001018054600181600116156101000203166002900480601f0160208091040260200160405190810160405280929190818152602001828054600181600116156101000203166002900480156108255780601f106107fa57610100808354040283529160200191610825565b820191906000526020600020905b81548152906001019060200180831161080857829003601f168201915b505050505090806002018054600181600116156101000203166002900480601f0160208091040260200160405190810160405280929190818152602001828054600181600116156101000203166002900480156108c35780601f10610898576101008083540402835291602001916108c3565b820191906000526020600020905b8154815290600101906020018083116108a657829003601f168201915b5050505050905083565b6108d56106ed565b15156108e057600080fd5b6108e9816108ec565b50565b600073ffffffffffffffffffffffffffffffffffffffff168173ffffffffffffffffffffffffffffffffffffffff161415151561092857600080fd5b8073ffffffffffffffffffffffffffffffffffffffff166000809054906101000a900473ffffffffffffffffffffffffffffffffffffffff1673ffffffffffffffffffffffffffffffffffffffff167f8be0079c531659141344cd1fd0a4f28419497f9722a3daafe3b4186f6b6457e060405160405180910390a3806000806101000a81548173ffffffffffffffffffffffffffffffffffffffff021916908373ffffffffffffffffffffffffffffffffffffffff1602179055505056fea165627a7a723058205adcc9771c73b923aea01b09bab0d0c74d980793c55e19e211cd3dfbb001dbc80029",
  "source": "pragma solidity ^0.5.0;\r\n\r\nimport \"./ownable.sol\";\r\n\r\ncontract PakbetUseCase is Ownable {\r\n    event NewTemplate(address issuerAddress, string title, string description);\r\n    event NewCertificate(bytes32 hashCode);\r\n    event NewPremiumCertificate(bytes32 hashCode, address student);\r\n    event NewIssuer(uint issuerId, string name);\r\n    event NewStudent(uint256 id, address student);\r\n    \r\n    struct Issuer {\r\n        bool active;\r\n        string name;\r\n        uint256[] templatesCreated;\r\n    }\r\n\r\n    struct Template {\r\n       address createdBy;\r\n       string title;\r\n       string description;\r\n    }\r\n    \r\n    struct Certificate {\r\n        uint256 issuedTo;\r\n        uint256 issuedBy;\r\n        uint256 templateUsed;\r\n        uint32 date;\r\n    }\r\n    \r\n    struct Student {\r\n        address blockChainAccount;\r\n        uint256[] certificatesOwned;\r\n    }\r\n    \r\n    Certificate[] public certificates;\r\n    Issuer[] public issuers;\r\n    Student[] public students;\r\n    Template[] public templates;\r\n\r\n    mapping (address => bool) premiumStudents;\r\n    mapping (address => bool) accreditedIssuers;\r\n    mapping (address => uint256) addressToIssuer;\r\n    mapping (address => uint256) addressToStudent;\r\n    mapping (bytes32 => uint256) bytesToCertificate;\r\n    mapping (bytes32 => bool) existingTemplates;\r\n    mapping (bytes32 => bool) premiumCertificates;\r\n    mapping (bytes32 => bool) regularCertificates;\r\n    \r\n    \r\n    modifier isNotAccredited(address _issuerAddress) {\r\n        require(!accreditedIssuers[_issuerAddress]);\r\n        _;\r\n    }\r\n    \r\n    modifier isAccredited(address _issuerAddress) {\r\n        require(accreditedIssuers[_issuerAddress]);\r\n        _;\r\n    }\r\n    \r\n    modifier isNotExistingTemplate(bytes32 _hashCode) {\r\n        require(!existingTemplates[_hashCode]);\r\n        _;\r\n    }\r\n    \r\n    modifier isExistingTemplate(bytes32 _hashCode) {\r\n        require(existingTemplates[_hashCode]);\r\n        _;\r\n    }\r\n    \r\n    modifier canAward(address _issuer) {\r\n        uint256 index = addressToIssuer[_issuer];\r\n        \r\n        require(accreditedIssuers[_issuer]);\r\n        require (issuers[index].active);\r\n        _;\r\n    }\r\n}    \r\n    \r\n    \r\n\r\n",
  "sourcePath": "D:\\ethereum\\pakbet\\contracts\\PakbetUsecase.sol",
  "compiler": {
    "name": "solc",
    "version": "0.5.0+commit.1d4f565a.Emscripten.clang"
  },
  "schemaVersion": "3.0.18",
  "updatedAt": "2019-11-09T07:26:00.845Z",
  "networkType": "ethereum",
  "devdoc": {
    "methods": {
      "isOwner()": {
        "return": "true if `msg.sender` is the owner of the contract.\r"
      },
      "owner()": {
        "return": "the address of the owner.\r"
      },
      "renounceOwnership()": {
        "details": "Allows the current owner to relinquish control of the contract.\r"
      },
      "transferOwnership(address)": {
        "details": "Allows the current owner to transfer control of the contract to a newOwner.\r",
        "params": {
          "newOwner": "The address to transfer ownership to.\r"
        }
      }
    }
  },
  "userdoc": {
    "methods": {
      "renounceOwnership()": {
        "notice": "Renouncing to ownership will leave the contract without an owner.\r It will not be possible to call the functions with the `onlyOwner`\r modifier anymore.\r"
      }
    }
  }
}