{
  "contractName": "PakbetStudent",
  "abi": [
    {
      "constant": true,
      "inputs": [
        {
          "name": "",
          "type": "uint256"
        }
      ],
      "name": "students",
      "outputs": [
        {
          "name": "blockChainAccount",
          "type": "address"
        }
      ],
      "payable": false,
      "stateMutability": "view",
      "type": "function"
    },
    {
      "constant": false,
      "inputs": [
        {
          "name": "_hashCode",
          "type": "bytes32"
        }
      ],
      "name": "awardRegularCertificate",
      "outputs": [
        {
          "name": "",
          "type": "bool"
        }
      ],
      "payable": false,
      "stateMutability": "nonpayable",
      "type": "function"
    },
    {
      "constant": true,
      "inputs": [
        {
          "name": "",
          "type": "uint256"
        }
      ],
      "name": "issuers",
      "outputs": [
        {
          "name": "active",
          "type": "bool"
        },
        {
          "name": "name",
          "type": "string"
        }
      ],
      "payable": false,
      "stateMutability": "view",
      "type": "function"
    },
    {
      "constant": true,
      "inputs": [
        {
          "name": "",
          "type": "uint256"
        }
      ],
      "name": "certificates",
      "outputs": [
        {
          "name": "issuedTo",
          "type": "uint256"
        },
        {
          "name": "issuedBy",
          "type": "uint256"
        },
        {
          "name": "templateUsed",
          "type": "uint256"
        },
        {
          "name": "date",
          "type": "uint32"
        }
      ],
      "payable": false,
      "stateMutability": "view",
      "type": "function"
    },
    {
      "constant": false,
      "inputs": [
        {
          "name": "_title",
          "type": "string"
        },
        {
          "name": "_description",
          "type": "string"
        }
      ],
      "name": "createTemplate",
      "outputs": [],
      "payable": false,
      "stateMutability": "nonpayable",
      "type": "function"
    },
    {
      "constant": false,
      "inputs": [],
      "name": "renounceOwnership",
      "outputs": [],
      "payable": false,
      "stateMutability": "nonpayable",
      "type": "function"
    },
    {
      "constant": true,
      "inputs": [],
      "name": "owner",
      "outputs": [
        {
          "name": "",
          "type": "address"
        }
      ],
      "payable": false,
      "stateMutability": "view",
      "type": "function"
    },
    {
      "constant": true,
      "inputs": [],
      "name": "isOwner",
      "outputs": [
        {
          "name": "",
          "type": "bool"
        }
      ],
      "payable": false,
      "stateMutability": "view",
      "type": "function"
    },
    {
      "constant": true,
      "inputs": [
        {
          "name": "_hashCode",
          "type": "bytes32"
        }
      ],
      "name": "validateRegularCertificate",
      "outputs": [
        {
          "name": "",
          "type": "bool"
        }
      ],
      "payable": false,
      "stateMutability": "view",
      "type": "function"
    },
    {
      "constant": false,
      "inputs": [
        {
          "name": "_templateId",
          "type": "uint256"
        },
        {
          "name": "_hashCode",
          "type": "bytes32"
        },
        {
          "name": "_studentAddress",
          "type": "address"
        }
      ],
      "name": "awardPublicCertificates",
      "outputs": [],
      "payable": false,
      "stateMutability": "nonpayable",
      "type": "function"
    },
    {
      "constant": false,
      "inputs": [
        {
          "name": "_issuerAddress",
          "type": "address"
        },
        {
          "name": "_name",
          "type": "string"
        }
      ],
      "name": "accreditIssuer",
      "outputs": [],
      "payable": false,
      "stateMutability": "nonpayable",
      "type": "function"
    },
    {
      "constant": true,
      "inputs": [
        {
          "name": "",
          "type": "uint256"
        }
      ],
      "name": "templates",
      "outputs": [
        {
          "name": "createdBy",
          "type": "address"
        },
        {
          "name": "title",
          "type": "string"
        },
        {
          "name": "description",
          "type": "string"
        }
      ],
      "payable": false,
      "stateMutability": "view",
      "type": "function"
    },
    {
      "constant": false,
      "inputs": [
        {
          "name": "_index",
          "type": "uint256"
        }
      ],
      "name": "deActivateIssuerById",
      "outputs": [],
      "payable": false,
      "stateMutability": "nonpayable",
      "type": "function"
    },
    {
      "constant": true,
      "inputs": [
        {
          "name": "_id",
          "type": "uint256"
        }
      ],
      "name": "getIssuedTemplates",
      "outputs": [
        {
          "name": "",
          "type": "uint256[]"
        }
      ],
      "payable": false,
      "stateMutability": "view",
      "type": "function"
    },
    {
      "constant": false,
      "inputs": [
        {
          "name": "_index",
          "type": "uint256"
        }
      ],
      "name": "reActivateIssuerById",
      "outputs": [],
      "payable": false,
      "stateMutability": "nonpayable",
      "type": "function"
    },
    {
      "constant": false,
      "inputs": [
        {
          "name": "newOwner",
          "type": "address"
        }
      ],
      "name": "transferOwnership",
      "outputs": [],
      "payable": false,
      "stateMutability": "nonpayable",
      "type": "function"
    },
    {
      "anonymous": false,
      "inputs": [
        {
          "indexed": false,
          "name": "issuerAddress",
          "type": "address"
        },
        {
          "indexed": false,
          "name": "title",
          "type": "string"
        },
        {
          "indexed": false,
          "name": "description",
          "type": "string"
        }
      ],
      "name": "NewTemplate",
      "type": "event"
    },
    {
      "anonymous": false,
      "inputs": [
        {
          "indexed": false,
          "name": "hashCode",
          "type": "bytes32"
        }
      ],
      "name": "NewCertificate",
      "type": "event"
    },
    {
      "anonymous": false,
      "inputs": [
        {
          "indexed": false,
          "name": "hashCode",
          "type": "bytes32"
        },
        {
          "indexed": false,
          "name": "student",
          "type": "address"
        }
      ],
      "name": "NewPremiumCertificate",
      "type": "event"
    },
    {
      "anonymous": false,
      "inputs": [
        {
          "indexed": false,
          "name": "issuerId",
          "type": "uint256"
        },
        {
          "indexed": false,
          "name": "name",
          "type": "string"
        }
      ],
      "name": "NewIssuer",
      "type": "event"
    },
    {
      "anonymous": false,
      "inputs": [
        {
          "indexed": false,
          "name": "id",
          "type": "uint256"
        },
        {
          "indexed": false,
          "name": "student",
          "type": "address"
        }
      ],
      "name": "NewStudent",
      "type": "event"
    },
    {
      "anonymous": false,
      "inputs": [
        {
          "indexed": true,
          "name": "previousOwner",
          "type": "address"
        },
        {
          "indexed": true,
          "name": "newOwner",
          "type": "address"
        }
      ],
      "name": "OwnershipTransferred",
      "type": "event"
    },
    {
      "constant": false,
      "inputs": [
        {
          "name": "_studentAddress",
          "type": "address"
        }
      ],
      "name": "enrollStudent",
      "outputs": [],
      "payable": false,
      "stateMutability": "nonpayable",
      "type": "function"
    },
    {
      "constant": true,
      "inputs": [
        {
          "name": "_id",
          "type": "uint256"
        }
      ],
      "name": "getStudentCertificates",
      "outputs": [
        {
          "name": "",
          "type": "uint256[]"
        }
      ],
      "payable": false,
      "stateMutability": "view",
      "type": "function"
    }
  ],
  "bytecode": "0x6080604052336000806101000a81548173ffffffffffffffffffffffffffffffffffffffff021916908373ffffffffffffffffffffffffffffffffffffffff1602179055506000809054906101000a900473ffffffffffffffffffffffffffffffffffffffff1673ffffffffffffffffffffffffffffffffffffffff16600073ffffffffffffffffffffffffffffffffffffffff167f8be0079c531659141344cd1fd0a4f28419497f9722a3daafe3b4186f6b6457e060405160405180910390a36124b5806100cf6000396000f3fe6080604052600436106100fc576000357c0100000000000000000000000000000000000000000000000000000000900463ffffffff16806306ead22e146101015780632a207eae1461017c57806352a8f271146101cd57806361ec30c414610220578063663b3e22146102df5780636aeae8371461034f578063715018a61461042a5780638da5cb5b146104415780638f32d59b1461049857806392f0ae86146104c757806397ded1b01461051a578063a4d68d751461057f578063bc52565214610625578063c01ff84c14610778578063d3eacc19146107b3578063e5f5a14614610843578063e97c147b146108d3578063f2fde38b1461090e575b600080fd5b34801561010d57600080fd5b5061013a6004803603602081101561012457600080fd5b810190808035906020019092919050505061095f565b604051808273ffffffffffffffffffffffffffffffffffffffff1673ffffffffffffffffffffffffffffffffffffffff16815260200191505060405180910390f35b34801561018857600080fd5b506101cb6004803603602081101561019f57600080fd5b81019080803573ffffffffffffffffffffffffffffffffffffffff1690602001909291905050506109ac565b005b3480156101d957600080fd5b50610206600480360360208110156101f057600080fd5b8101908080359060200190929190505050610a6b565b604051808215151515815260200191505060405180910390f35b34801561022c57600080fd5b506102596004803603602081101561024357600080fd5b8101908080359060200190929190505050610bde565b604051808315151515815260200180602001828103825283818151815260200191508051906020019080838360005b838110156102a3578082015181840152602081019050610288565b50505050905090810190601f1680156102d05780820380516001836020036101000a031916815260200191505b50935050505060405180910390f35b3480156102eb57600080fd5b506103186004803603602081101561030257600080fd5b8101908080359060200190929190505050610cb6565b604051808581526020018481526020018381526020018263ffffffff1663ffffffff16815260200194505050505060405180910390f35b34801561035b57600080fd5b506104286004803603604081101561037257600080fd5b810190808035906020019064010000000081111561038f57600080fd5b8201836020820111156103a157600080fd5b803590602001918460018302840111640100000000831117156103c357600080fd5b9091929391929390803590602001906401000000008111156103e457600080fd5b8201836020820111156103f657600080fd5b8035906020019184600183028401116401000000008311171561041857600080fd5b9091929391929390505050610d05565b005b34801561043657600080fd5b5061043f610f73565b005b34801561044d57600080fd5b50610456611045565b604051808273ffffffffffffffffffffffffffffffffffffffff1673ffffffffffffffffffffffffffffffffffffffff16815260200191505060405180910390f35b3480156104a457600080fd5b506104ad61106e565b604051808215151515815260200191505060405180910390f35b3480156104d357600080fd5b50610500600480360360208110156104ea57600080fd5b81019080803590602001909291905050506110c5565b604051808215151515815260200191505060405180910390f35b34801561052657600080fd5b5061057d6004803603606081101561053d57600080fd5b810190808035906020019092919080359060200190929190803573ffffffffffffffffffffffffffffffffffffffff169060200190929190505050611117565b005b34801561058b57600080fd5b50610623600480360360408110156105a257600080fd5b81019080803573ffffffffffffffffffffffffffffffffffffffff169060200190929190803590602001906401000000008111156105df57600080fd5b8201836020820111156105f157600080fd5b8035906020019184600183028401116401000000008311171561061357600080fd5b9091929391929390505050611443565b005b34801561063157600080fd5b5061065e6004803603602081101561064857600080fd5b81019080803590602001909291905050506114a9565b604051808473ffffffffffffffffffffffffffffffffffffffff1673ffffffffffffffffffffffffffffffffffffffff1681526020018060200180602001838103835285818151815260200191508051906020019080838360005b838110156106d45780820151818401526020810190506106b9565b50505050905090810190601f1680156107015780820380516001836020036101000a031916815260200191505b50838103825284818151815260200191508051906020019080838360005b8381101561073a57808201518184015260208101905061071f565b50505050905090810190601f1680156107675780820380516001836020036101000a031916815260200191505b509550505050505060405180910390f35b34801561078457600080fd5b506107b16004803603602081101561079b57600080fd5b8101908080359060200190929190505050611632565b005b3480156107bf57600080fd5b506107ec600480360360208110156107d657600080fd5b81019080803590602001909291905050506116ba565b6040518080602001828103825283818151815260200191508051906020019060200280838360005b8381101561082f578082015181840152602081019050610814565b505050509050019250505060405180910390f35b34801561084f57600080fd5b5061087c6004803603602081101561086657600080fd5b8101908080359060200190929190505050611829565b6040518080602001828103825283818151815260200191508051906020019060200280838360005b838110156108bf5780820151818401526020810190506108a4565b505050509050019250505060405180910390f35b3480156108df57600080fd5b5061090c600480360360208110156108f657600080fd5b8101908080359060200190929190505050611944565b005b34801561091a57600080fd5b5061095d6004803603602081101561093157600080fd5b81019080803573ffffffffffffffffffffffffffffffffffffffff1690602001909291905050506119cd565b005b60038181548110151561096e57fe5b90600052602060002090600202016000915090508060000160009054906101000a900473ffffffffffffffffffffffffffffffffffffffff16905081565b33600660008273ffffffffffffffffffffffffffffffffffffffff1673ffffffffffffffffffffffffffffffffffffffff16815260200190815260200160002060009054906101000a900460ff161515610a0557600080fd5b600560008373ffffffffffffffffffffffffffffffffffffffff1673ffffffffffffffffffffffffffffffffffffffff16815260200190815260200160002060009054906101000a900460ff16151515610a5e57600080fd5b610a67826119ec565b5050565b6000336000600760008373ffffffffffffffffffffffffffffffffffffffff1673ffffffffffffffffffffffffffffffffffffffff168152602001908152602001600020549050600660008373ffffffffffffffffffffffffffffffffffffffff1673ffffffffffffffffffffffffffffffffffffffff16815260200190815260200160002060009054906101000a900460ff161515610b0a57600080fd5b600281815481101515610b1957fe5b906000526020600020906003020160000160009054906101000a900460ff161515610b4357600080fd5b600c600085815260200190815260200160002060009054906101000a900460ff16151515610b7057600080fd5b6001600c600086815260200190815260200160002060006101000a81548160ff0219169083151502179055507f35445dd7684af4d0b1828f42019bd59ce22b71771e931983dfe04d5eb270afd8846040518082815260200191505060405180910390a1600192505050919050565b600281815481101515610bed57fe5b90600052602060002090600302016000915090508060000160009054906101000a900460ff1690806001018054600181600116156101000203166002900480601f016020809104026020016040519081016040528092919081815260200182805460018160011615610100020316600290048015610cac5780601f10610c8157610100808354040283529160200191610cac565b820191906000526020600020905b815481529060010190602001808311610c8f57829003601f168201915b5050505050905082565b600181815481101515610cc557fe5b90600052602060002090600402016000915090508060000154908060010154908060020154908060030160009054906101000a900463ffffffff16905084565b33600660008273ffffffffffffffffffffffffffffffffffffffff1673ffffffffffffffffffffffffffffffffffffffff16815260200190815260200160002060009054906101000a900460ff161515610d5e57600080fd5b6000600760003373ffffffffffffffffffffffffffffffffffffffff1673ffffffffffffffffffffffffffffffffffffffff168152602001908152602001600020549050600086868686600286815481101515610db757fe5b9060005260206000209060030201600101604051602001808060200180602001806020018481038452898982818152602001925080828437600081840152601f19601f8201169050808301925050508481038352878782818152602001925080828437600081840152601f19601f820116905080830192505050848103825285818154600181600116156101000203166002900481526020019150805460018160011615610100020316600290048015610eb25780601f10610e8757610100808354040283529160200191610eb2565b820191906000526020600020905b815481529060010190602001808311610e9557829003601f168201915b505098505050505050505050604051602081830303815290604052805190602001209050610f6a3388888080601f016020809104026020016040519081016040528093929190818152602001838380828437600081840152601f19601f8201169050808301925050505050505087878080601f016020809104026020016040519081016040528093929190818152602001838380828437600081840152601f19601f8201169050808301925050505050505084611b6e565b50505050505050565b610f7b61106e565b1515610f8657600080fd5b600073ffffffffffffffffffffffffffffffffffffffff166000809054906101000a900473ffffffffffffffffffffffffffffffffffffffff1673ffffffffffffffffffffffffffffffffffffffff167f8be0079c531659141344cd1fd0a4f28419497f9722a3daafe3b4186f6b6457e060405160405180910390a360008060006101000a81548173ffffffffffffffffffffffffffffffffffffffff021916908373ffffffffffffffffffffffffffffffffffffffff160217905550565b60008060009054906101000a900473ffffffffffffffffffffffffffffffffffffffff16905090565b60008060009054906101000a900473ffffffffffffffffffffffffffffffffffffffff1673ffffffffffffffffffffffffffffffffffffffff163373ffffffffffffffffffffffffffffffffffffffff1614905090565b6000600c600083815260200190815260200160002060009054906101000a900460ff16806111105750600b600083815260200190815260200160002060009054906101000a900460ff165b9050919050565b33600660008273ffffffffffffffffffffffffffffffffffffffff1673ffffffffffffffffffffffffffffffffffffffff16815260200190815260200160002060009054906101000a900460ff16151561117057600080fd5b6004805490508410151561118357600080fd5b3373ffffffffffffffffffffffffffffffffffffffff166004858154811015156111a957fe5b906000526020600020906003020160000160009054906101000a900473ffffffffffffffffffffffffffffffffffffffff1673ffffffffffffffffffffffffffffffffffffffff161415156111fd57600080fd5b600560008373ffffffffffffffffffffffffffffffffffffffff1673ffffffffffffffffffffffffffffffffffffffff16815260200190815260200160002060009054906101000a900460ff16151561125557600080fd5b600b600084815260200190815260200160002060009054906101000a900460ff1615151561128257600080fd5b6000600860008473ffffffffffffffffffffffffffffffffffffffff1673ffffffffffffffffffffffffffffffffffffffff1681526020019081526020016000205490506000600760003373ffffffffffffffffffffffffffffffffffffffff1673ffffffffffffffffffffffffffffffffffffffff16815260200190815260200160002054905060006001806080604051908101604052808681526020018581526020018a81526020014263ffffffff168152509080600181540180825580915050906001820390600052602060002090600402016000909192909190915060008201518160000155602082015181600101556040820151816002015560608201518160030160006101000a81548163ffffffff021916908363ffffffff16021790555050500390506001600b600088815260200190815260200160002060006101000a81548160ff0219169083151502179055508060096000888152602001908152602001600020819055506003838154811015156113ff57fe5b906000526020600020906002020160010181908060018154018082558091505090600182039060005260206000200160009091929091909150555050505050505050565b61144b61106e565b151561145657600080fd5b6114a48383838080601f016020809104026020016040519081016040528093929190818152602001838380828437600081840152601f19601f82011690508083019250505050505050611eb6565b505050565b6004818154811015156114b857fe5b90600052602060002090600302016000915090508060000160009054906101000a900473ffffffffffffffffffffffffffffffffffffffff1690806001018054600181600116156101000203166002900480601f01602080910402602001604051908101604052809291908181526020018280546001816001161561010002031660029004801561158a5780601f1061155f5761010080835404028352916020019161158a565b820191906000526020600020905b81548152906001019060200180831161156d57829003601f168201915b505050505090806002018054600181600116156101000203166002900480601f0160208091040260200160405190810160405280929190818152602001828054600181600116156101000203166002900480156116285780601f106115fd57610100808354040283529160200191611628565b820191906000526020600020905b81548152906001019060200180831161160b57829003601f168201915b5050505050905083565b61163a61106e565b151561164557600080fd5b60028181548110151561165457fe5b906000526020600020906003020160000160009054906101000a900460ff16151561167e57600080fd5b600060028281548110151561168f57fe5b906000526020600020906003020160000160006101000a81548160ff02191690831515021790555050565b60603373ffffffffffffffffffffffffffffffffffffffff166003838154811015156116e257fe5b906000526020600020906002020160000160009054906101000a900473ffffffffffffffffffffffffffffffffffffffff1673ffffffffffffffffffffffffffffffffffffffff1614151561173657600080fd5b606060038381548110151561174757fe5b90600052602060002090600202016001018054905060405190808252806020026020018201604052801561178a5781602001602082028038833980820191505090505b50905060008090505b6003848154811015156117a257fe5b90600052602060002090600202016001018054905081101561181f576003848154811015156117cd57fe5b9060005260206000209060020201600101818154811015156117eb57fe5b9060005260206000200154828281518110151561180457fe5b90602001906020020181815250508080600101915050611793565b5080915050919050565b606061183361106e565b151561183e57600080fd5b6002805490508210151561185157600080fd5b606060028381548110151561186257fe5b9060005260206000209060030201600201805490506040519080825280602002602001820160405280156118a55781602001602082028038833980820191505090505b50905060008090505b6002848154811015156118bd57fe5b90600052602060002090600302016002018054905081101561193a576002848154811015156118e857fe5b90600052602060002090600302016002018181548110151561190657fe5b9060005260206000200154828281518110151561191f57fe5b906020019060200201818152505080806001019150506118ae565b5080915050919050565b61194c61106e565b151561195757600080fd5b60028181548110151561196657fe5b906000526020600020906003020160000160009054906101000a900460ff1615151561199157600080fd5b60016002828154811015156119a257fe5b906000526020600020906003020160000160006101000a81548160ff02191690831515021790555050565b6119d561106e565b15156119e057600080fd5b6119e9816120dc565b50565b600060038054809190600101611a0291906121d6565b905081600382815481101515611a1457fe5b906000526020600020906002020160000160006101000a81548173ffffffffffffffffffffffffffffffffffffffff021916908373ffffffffffffffffffffffffffffffffffffffff1602179055506001600560008473ffffffffffffffffffffffffffffffffffffffff1673ffffffffffffffffffffffffffffffffffffffff16815260200190815260200160002060006101000a81548160ff02191690831515021790555080600860008473ffffffffffffffffffffffffffffffffffffffff1673ffffffffffffffffffffffffffffffffffffffff168152602001908152602001600020819055507f76d881824e81c30f0d2ea36f999b13c9d258bc821dc2d29a17eb8ba7f95c275b8183604051808381526020018273ffffffffffffffffffffffffffffffffffffffff1673ffffffffffffffffffffffffffffffffffffffff1681526020019250505060405180910390a15050565b80600a600082815260200190815260200160002060009054906101000a900460ff16151515611b9c57600080fd5b600060048054809190600101611bb29190612208565b90506000600760008873ffffffffffffffffffffffffffffffffffffffff1673ffffffffffffffffffffffffffffffffffffffff168152602001908152602001600020549050600281815481101515611c0757fe5b906000526020600020906003020160000160009054906101000a900460ff161515611c3157600080fd5b86600483815481101515611c4157fe5b906000526020600020906003020160000160006101000a81548173ffffffffffffffffffffffffffffffffffffffff021916908373ffffffffffffffffffffffffffffffffffffffff16021790555085600483815481101515611ca057fe5b90600052602060002090600302016001019080519060200190611cc492919061223a565b5084600483815481101515611cd557fe5b90600052602060002090600302016002019080519060200190611cf992919061223a565b50600281815481101515611d0957fe5b90600052602060002090600302016002018290806001815401808255809150509060018203906000526020600020016000909192909190915055506001600a600086815260200190815260200160002060006101000a81548160ff0219169083151502179055507fcbb28b3e1f77d025889ab5d1e72a2eca69e6105bc36f0044122e59c55f40e18f878787604051808473ffffffffffffffffffffffffffffffffffffffff1673ffffffffffffffffffffffffffffffffffffffff1681526020018060200180602001838103835285818151815260200191508051906020019080838360005b83811015611e0a578082015181840152602081019050611def565b50505050905090810190601f168015611e375780820380516001836020036101000a031916815260200191505b50838103825284818151815260200191508051906020019080838360005b83811015611e70578082015181840152602081019050611e55565b50505050905090810190601f168015611e9d5780820380516001836020036101000a031916815260200191505b509550505050505060405180910390a150505050505050565b81600660008273ffffffffffffffffffffffffffffffffffffffff1673ffffffffffffffffffffffffffffffffffffffff16815260200190815260200160002060009054906101000a900460ff16151515611f1057600080fd5b600060028054809190600101611f2691906122ba565b90506001600282815481101515611f3957fe5b906000526020600020906003020160000160006101000a81548160ff02191690831515021790555082600282815481101515611f7157fe5b90600052602060002090600302016001019080519060200190611f9592919061223a565b506001600660008673ffffffffffffffffffffffffffffffffffffffff1673ffffffffffffffffffffffffffffffffffffffff16815260200190815260200160002060006101000a81548160ff02191690831515021790555080600760008673ffffffffffffffffffffffffffffffffffffffff1673ffffffffffffffffffffffffffffffffffffffff168152602001908152602001600020819055507faf49f6e647e48528a5c4c0a5801947007b7fa9744c066de10b2f7e747754bf1d81846040518083815260200180602001828103825283818151815260200191508051906020019080838360005b8381101561209b578082015181840152602081019050612080565b50505050905090810190601f1680156120c85780820380516001836020036101000a031916815260200191505b50935050505060405180910390a150505050565b600073ffffffffffffffffffffffffffffffffffffffff168173ffffffffffffffffffffffffffffffffffffffff161415151561211857600080fd5b8073ffffffffffffffffffffffffffffffffffffffff166000809054906101000a900473ffffffffffffffffffffffffffffffffffffffff1673ffffffffffffffffffffffffffffffffffffffff167f8be0079c531659141344cd1fd0a4f28419497f9722a3daafe3b4186f6b6457e060405160405180910390a3806000806101000a81548173ffffffffffffffffffffffffffffffffffffffff021916908373ffffffffffffffffffffffffffffffffffffffff16021790555050565b8154818355818111156122035760020281600202836000526020600020918201910161220291906122ec565b5b505050565b815481835581811115612235576003028160030283600052602060002091820191016122349190612342565b5b505050565b828054600181600116156101000203166002900490600052602060002090601f016020900481019282601f1061227b57805160ff19168380011785556122a9565b828001600101855582156122a9579182015b828111156122a857825182559160200191906001019061228d565b5b5090506122b691906123a8565b5090565b8154818355818111156122e7576003028160030283600052602060002091820191016122e691906123cd565b5b505050565b61233f91905b8082111561233b57600080820160006101000a81549073ffffffffffffffffffffffffffffffffffffffff02191690556001820160006123329190612420565b506002016122f2565b5090565b90565b6123a591905b808211156123a157600080820160006101000a81549073ffffffffffffffffffffffffffffffffffffffff02191690556001820160006123889190612441565b6002820160006123989190612441565b50600301612348565b5090565b90565b6123ca91905b808211156123c65760008160009055506001016123ae565b5090565b90565b61241d91905b8082111561241957600080820160006101000a81549060ff02191690556001820160006124009190612441565b6002820160006124109190612420565b506003016123d3565b5090565b90565b508054600082559060005260206000209081019061243e91906123a8565b50565b50805460018160011615610100020316600290046000825580601f106124675750612486565b601f01602090049060005260206000209081019061248591906123a8565b5b5056fea165627a7a72305820e94f16738cd381c9bc5aedebe7b32cdd281b030d1f6178c4ca577e1e522bcd6e0029",
  "source": "pragma solidity ^0.5.0;\r\n\r\nimport \"./PakbetCertificate.sol\";\r\n\r\ncontract PakbetStudent is PakbetCertificate {\r\n    \r\n    /**\r\n     * @notice Add student to the blockchain.\r\n     * @dev Only accredited account can call this function. \r\n     * @param _studentAddress Blockchain Address associated to the student.\r\n     */ \r\n    function enrollStudent(address _studentAddress) external isAccredited(msg.sender) {\r\n        require(!premiumStudents[_studentAddress]);\r\n        _enrollStudent(_studentAddress);\r\n    }\r\n    \r\n    /**\r\n     * @param _id uint256 value corresponding to the index position of the student\r\n     * in the students[] array.\r\n     * @return an array containing the certificate ids owned by the student.\r\n     */ \r\n    function getStudentCertificates(uint256 _id) external view returns(uint256[] memory) {\r\n        require (students[_id].blockChainAccount == msg.sender);\r\n        uint256[] memory result = new uint256[](students[_id].certificatesOwned.length);\r\n        \r\n        for (uint i = 0; i < students[_id].certificatesOwned.length; i++) {\r\n            result[i] = students[_id].certificatesOwned[i];\r\n        }\r\n        return result;\r\n    }\r\n    \r\n    function _enrollStudent(address _studentAccount) internal {\r\n        uint256 id = students.length++;\r\n        \r\n        students[id].blockChainAccount = _studentAccount;\r\n        premiumStudents[_studentAccount] = true;\r\n        addressToStudent[_studentAccount] = id;\r\n        emit NewStudent(id, _studentAccount);\r\n   }\r\n}\r\n\r\n//Owner\r\n//\"0xCA35b7d915458EF540aDe6068dFe2F44E8fa733c\",\"Tutu Institute\"\r\n\r\n//Issuers\r\n//\"0x14723A09ACff6D2A60DcdF7aA4AFf308FDDC160C\",\"Block Chain\"\r\n//\"0x4B0897b0513fdC7C541B6d9D7E929C4e5364D2dB\",\"Kadenang Bloke\"\r\n\r\n//Students\r\n//\"0x583031D1113aD414F02576BD6afaBfb302140225\"\r\n//\"0xdD870fA1b7C4700F2BD7f44238821C26f7392148\"\r\n\r\n//Templates\r\n//\"Certificate of Completion\",\"Blockchain Security\"\r\n//\"Certificate of Attendance\",\"BTA Excellarator\"\r\n//\"Certificate of Participation\",\"BTA Expert\"\r\n//\"Certificate of Participation\",\"Block Chain\"\r\n//\"Certificate of Participation\",\"Kadenang Bloke\"\r\n\r\n\r\n//Regular Certificate\r\n//\"0x4365727469666963617465206f662050617274696369706174696f6e0a4a6f00\"\r\n//\"0x4365727469666963617465206f6620417474656e64616e63650a4a6f656c0000\"\r\n//\"0x4365727469666963617465206f6620436f6d706c6574696f6e0a4a6f656c0000\"\r\n\r\n//Public Certificate\r\n//0,\"0x7465737400000000000000000000000000000000000000000000000000000000\",\"0x583031D1113aD414F02576BD6afaBfb302140225\"\r\n//1,\"0x6a6f656c00000000000000000000000000000000000000000000000000000000\",\"0x583031D1113aD414F02576BD6afaBfb302140225\" \r\n//2,\"0x6a696d656e657a00000000000000000000000000000000000000000000000000\",\"0x583031D1113aD414F02576BD6afaBfb302140225\"\r\n//3,\"0x4a6f656c204b6164656e61206664642064206600000000000000000000000000\",\"0xdD870fA1b7C4700F2BD7f44238821C26f7392148\"\r\n\r\n\r\n\r\n",
  "sourcePath": "D:/ethereum/pakbet/contracts/PakbetStudent.sol",
  "compiler": {
    "name": "solc",
    "version": "0.5.0+commit.1d4f565a.Emscripten.clang"
  },
  "schemaVersion": "3.0.18",
  "updatedAt": "2019-11-09T07:34:02.337Z",
  "networkType": "ethereum",
  "devdoc": {
    "methods": {
      "accreditIssuer(address,string)": {
        "details": "Only the owner of the smart contract account can call this function. \r",
        "params": {
          "_issuerAddress": "Blockchain Address associated to the training institution.\r",
          "_name": "Name of the training institution.\r"
        }
      },
      "awardPublicCertificates(uint256,bytes32,address)": {
        "params": {
          "_hashCode": "the resulting value when pdf is hashed.\r",
          "_studentAddress": "Blockchain Address associated to the student.\r",
          "_templateId": "uint256 value corresponding to the index position of template in the templates[] array.\r"
        }
      },
      "awardRegularCertificate(bytes32)": {
        "details": "Record the hash value of the pdf document to the blockchain account.\r",
        "params": {
          "_hashCode": "the resulting value when pdf is hashed.\r"
        },
        "return": "true if awarding of certificate is good, false if awarding of certificate fails.\r"
      },
      "createTemplate(string,string)": {
        "details": "Only account in the issuer[] array can call this function.\r",
        "params": {
          "_description": "certificate description e.g. BTA Expert Program\r",
          "_title": "certificate description e.g. Certificate of Attendance.\r"
        }
      },
      "deActivateIssuerById(uint256)": {
        "params": {
          "_index": "uint256 value corresponding to the index position of the training institution\r in the issuers[] array.\r"
        }
      },
      "enrollStudent(address)": {
        "details": "Only accredited account can call this function. \r",
        "params": {
          "_studentAddress": "Blockchain Address associated to the student.\r"
        }
      },
      "getIssuedTemplates(uint256)": {
        "params": {
          "_id": "uint256 value corresponding to the index position of the training institution\r"
        },
        "return": "an array containing the template ids created template by the institution \r"
      },
      "getStudentCertificates(uint256)": {
        "params": {
          "_id": "uint256 value corresponding to the index position of the student\r in the students[] array.\r"
        },
        "return": "an array containing the certificate ids owned by the student.\r"
      },
      "isOwner()": {
        "return": "true if `msg.sender` is the owner of the contract.\r"
      },
      "owner()": {
        "return": "the address of the owner.\r"
      },
      "reActivateIssuerById(uint256)": {
        "params": {
          "_index": "uint256 value corresponding to the index position of the training institution\r in the issuers[] array.\r"
        }
      },
      "renounceOwnership()": {
        "details": "Allows the current owner to relinquish control of the contract.\r"
      },
      "transferOwnership(address)": {
        "details": "Allows the current owner to transfer control of the contract to a newOwner.\r",
        "params": {
          "newOwner": "The address to transfer ownership to.\r"
        }
      },
      "validateRegularCertificate(bytes32)": {
        "params": {
          "_hashCode": "the resulting value when pdf is hashed.\r"
        },
        "return": "true if Certificate exist in the blockchain, false if not.\r"
      }
    }
  },
  "userdoc": {
    "methods": {
      "accreditIssuer(address,string)": {
        "notice": "Add training institution to the blockchain.\r"
      },
      "awardRegularCertificate(bytes32)": {
        "notice": "Only accredited account can call this function.\r"
      },
      "createTemplate(string,string)": {
        "notice": "Creates blank certificates which will become basis for certificates\r to be issued.\r"
      },
      "deActivateIssuerById(uint256)": {
        "notice": "Prevent a training institution from creating and awarding certificates.\r"
      },
      "enrollStudent(address)": {
        "notice": "Add student to the blockchain.\r"
      },
      "reActivateIssuerById(uint256)": {
        "notice": "Allows a training institution from creating and awarding certificates.\r"
      },
      "renounceOwnership()": {
        "notice": "Renouncing to ownership will leave the contract without an owner.\r It will not be possible to call the functions with the `onlyOwner`\r modifier anymore.\r"
      }
    }
  }
}